:0200000460009A
:100000004643464200000156000000000103030081
:1000100000000000000000000000000000000000E0
:1000200000000000000000000000000000000000D0
:1000300000000000000000000000000000000000C0
:1000400000000000010408000000000000000000A3
:100050000000800000000000000000000000000020
:100060000000000000000000000000000000000090
:100070000000000000000000000000000000000080
:10008000EB04180A063204260000000000000000FD
:10009000050404240000000000000000000000002F
:1000A0000000000000000000000000000000000050
:1000B0000604000000000000000000000000000036
:1000C0000000000000000000000000000000000030
:1000D00020041808000000000000000000000000DC
:1000E0000000000000000000000000000000000010
:1000F0000000000000000000000000000000000000
:10010000D8041808000000000000000000000000F3
:100110000204180804200000000000000000000095
:1001200000000000000000000000000000000000CF
:10013000600400000000000000000000000000005B
:1001400000000000000000000000000000000000AF
:10015000000000000000000000000000000000009F
:10016000000000000000000000000000000000008F
:10017000000000000000000000000000000000007F
:10018000000000000000000000000000000000006F
:10019000000000000000000000000000000000005F
:1001A000000000000000000000000000000000004F
:1001B000000000000000000000000000000000003F
:1001C000000100000010000001000000000000001D
:1001D000000001000000000000000000000000001E
:1001E000000000000000000000000000000000000F
:1001F00000000000000000000000000000000000FF
:10020000FFFFFFFFFFFFFFFFFFFFFFFFFFFFFFFFFE
:10021000FFFFFFFFFFFFFFFFFFFFFFFFFFFFFFFFEE
:10100000D100204325160060000000000000000011
:10101000201000600010006000C8036000000000A5
:101020000000006000D4030000000000FFFFFFFF8D
:10103000FFFFFFFFFFFFFFFFFFFFFFFFFFFFFFFFC0
:10104000FFFFFFFFFFFFFFFFFFFFFFFFFFFFFFFFB0
:10105000FFFFFFFFFFFFFFFFFFFFFFFFFFFFFFFFA0
:10106000FFFFFFFFFFFFFFFFFFFFFFFFFFFFFFFF90
:10140000884207D0904205D251F8043B40F8043B93
:101410008242F9D8704700BF884204D2002340F8C6
:10142000043B8142FBD870472DE9884800F012F94F
:101430000824614B614AC3F8544161496148FFF790
:10144000DFFF614A61496248FFF7DAFF614962489C
:10145000FFF7E2FF614C4FF0E0214FF470000023F2
:101460005F4AC1F8880D44F823200133B02BFAD12C
:101470005C4B80215C4A03F8011B9342FBD14FF087
:10148000E0254D4E4FF08039DFF88CB1DFF88CA1AC
:101490004FF0FF31C5F8084D0027C6F80491C6F893
:1014A00000B1C6F8F490C6F8F0A0D5F8243DDFF8F6
:1014B000708143F4E0234D4AC5F8243DD8F81C3030
:1014C00023F07F0343F04003C8F81C30D8F82430E1
:1014D00023F07F0343F04003C8F824309166D166BF
:1014E0001167516700F0BEF8414B4249A363424B7C
:1014F000E36363236B610323AF612B613F4BC5F84B
:10150000203DD5F8FC3D43F08073C5F8FC3D3C4BD5
:101510001A6842F001021A605B680B6000F0E0FAA2
:10152000C6F804913748C6F800B1C6F8F490C6F87A
:10153000F0A000F07DFCD8F86C10334B334A41F436
:101540004051C8F86C101F60C3F80871C3F81871D7
:10155000C3F82871C3F83871936BDB0708D442F6DF
:1015600015632B4951651365936B43F00103936336
:10157000264A284C936843F00113936000F0EEF87C
:1015800000F012FC00F048FC00F0D8FA00F064F81B
:101590002368132BFCD900F069FB2368B3F5967F11
:1015A000FBD300F05DF800F059F800F049FC00F0C2
:1015B00043FC30BFFDE700BF00800D40701A030000
:1015C000701F006000000000C08A0020E439036042
:1015D00000000020808D0120C08A002000880020AB
:1015E0003971020000E400E0A0E400E000C00A401D
:1015F00055850200208D0120598502000000202021
:10160000001000E00046C3230040084000400D40A9
:101610000000C056248D01201B1018200C0D111342
:1016200000C00F40074B4FF42A01074A07485A648D
:101630001864074A99639546BFF34F8FBFF36F8FC6
:10164000FFF7F2FE00C00A40FFBFAAAA0700200071
:1016500000800420704700BF704700BF704700BF84
:1016600000BF704710B44FF0E023002110242B4836
:10167000C3F8941DC3F89C4D1124C3F8A00D28484D
:10168000C3F89C4D1224C3F8A00D2648C3F89C4D06
:10169000254AC3F8A00D254C42F015022448C3F892
:1016A0009C4DC3F8A00D234C2348C3F89C4DC3F8B0
:1016B000A00D224CC3F89C2D2148224AC3F8A04D0E
:1016C000C3F89C0DC3F8A02D02F5A0221E4C0C32CD
:1016D0001E48C3F89C4DC3F8A02D1D4AC3F89C0DAD
:1016E0001C4CC3F8A02D01221B48C3F89C4DC3F825
:1016F000A00DC3F8942DBFF34F8FBFF36F8FC3F8C6
:10170000501FBFF34F8FBFF36F8FD3F8142D5DF8C9
:10171000044B42F44032C3F8142D70473F000010D0
:101720002500080309001000808D0120130020000F
:1017300021000207140000202500081309000010F2
:101740001600202027000B1317000040180000602F
:101750002F000B07190000702F000B13F0B5B84BCA
:101760001822B84E0120B84F83B0C3F85C62B74965
:10177000C3F86072B64DC3F86462A6F53046B54C46
:10178000C3F86862C3F86C52C3F87052C3F874525D
:10179000C3F8785248F20C75DA661A675A679A6786
:1017A000DA67C3F88020C3F88420C3F88820C1F822
:1017B0002C03A94AC1F83003C1F83403C1F8380337
:1017C000C1F83C03C1F85003A169A44B0A40A448E6
:1017D000A4491343A44AA361D4F8843043F00C0312
:1017E000C4F884304FF0FF34036843F00203036011
:1017F00003682B404FF400551A439C4B0260446031
:101800008A689B4C13409B4A43F000538360C36833
:1018100023F07803C360036A134023430362036A1F
:101820001340954A2343954C43628262C262002270
:10183000D1F8B83023F03F0343F00103C0F8B830CB
:10184000D1F8BC308E4923F03F0343F00103C0F8C8
:10185000BC3040F20563026105660467C0F8803061
:10186000456644670224C0F88430036823F002030D
:1018700003608161834B8449C46143F8042B8B422C
:10188000FBD1774A136843F001031360136813F028
:101890000103FBD17A48022140F2F564906140F2E5
:1018A0009940D16140F26641C2F8004242F20144DF
:1018B000C2F810127549C2F82002C2F8301240F284
:1018C00035417348C2F83442C2F84012714CC2F834
:1018D000500242F201207049C2F854120121C2F8AC
:1018E0006042C2F864025E48C2F8A030C2F8A43078
:1018F000C2F8B0104369DA07FCD5012300244FF485
:10190000803257494361C0F8A040C0F8A420C0F815
:10191000B0304B69DB07FCD5012300244FF40030C5
:101920004F4A4B61C1F8A040C1F8A400C1F8B030E3
:101930005369DF07FCD50123002458484849536107
:10194000C2F8A040C2F8A400C2F8B0304B69DE076C
:10195000FCD5D1F8003145F60D5221209BB24861EB
:10196000934265D100244FF4802201233C48C1F802
:10197000A040C1F8A420C1F8B0304369DD07FCD510
:1019800001234FF400040021354A4361C0F8A04010
:10199000C0F8A410C0F8B0305369DC07FCD50123AF
:1019A0004FF400044FF480302D495361C2F8A04039
:1019B000C2F8A400C2F8B0304B69D807FCD50123A7
:1019C0004FF400044FF40030254A4B61C1F8A040A9
:1019D000C1F8A400C1F8B0305369D907FCD5012380
:1019E0004FF400042D481E495361C2F8A040C2F8CC
:1019F000A400C2F8B0304B69DA07FCD5D1F8003149
:101A000045F60D5221209BB24861934250D00825E3
:101A10004FF4000422490020224B234A0090157005
:101A20005A1A01232148224400F0FAF903B0F0BD0C
:101A30001E4B0022C3E90022C3E9022203B0F0BD1D
:101A400000801F40F9B00100F910010000841F4020
:101A5000F970010000C00F40FFFCFF1F000300A051
:101A600000402A4000802A401200FFFFFF37F700A5
:101A70004000008000FFF07CFF000F836300020045
:101A8000F05AF05A00422A4000432A409F0418307E
:101A9000EB06180A3806180A06320126040003006D
:101AA00000000070000000704B8D0120F0820120CA
:101AB0004FF400044FF4802201230848C1F8A040ED
:101AC000C1F8A420C1F8B0304369DB07FCD501237D
:101AD00010254FF0807443619CE700BF00402A400E
:101AE000F0B4154A40274FF480314FF480564FF43C
:101AF00000554FF4404443F24200136913F0020FC3
:101B00000ED113F4005F0FD013F4805F0ED0002BC2
:101B1000F3DA13F4803F0BD15B060BD5F0BC7047B2
:101B2000946151619061E8E75561E6E75661E4E749
:101B30009161E2E75761E0E700800D403F4A0320F2
:101B40003F49F3EE095AD2F880304FF0000C9FED78
:101B50003D6A23F001039FED3C5A30B4C2F8803057
:101B6000C2F89000D1F8E010384DCBB2384C39486B
:101B70002B6007EE903A0B0DC1F30B21F8EEE77ADC
:101B800006EE903A07EE101A334BB8EEC77A216092
:101B9000F8EEE66A314937EEC66A37EEC55A76EE98
:101BA000C76A77EEE57A26EE266AC3ED006A25EE6F
:101BB000265AD2F8803067EEA64AC0ED007AC6EE0B
:101BC000275A274885EE276AC4EEA76A75EE875A1A
:101BD000FCEEE55A36EE076A15EE904ABCEEC66A90
:101BE00043EA045376EE877AC2F8803016EE103A54
:101BF000D2F89041FCEEE77A01EA0341214317EE67
:101C0000903AC2F89011C3F30B03D2F890110B4332
:101C10001449C2F89031D2F8803043F00203C2F880
:101C20008030114B80F840C0C1F840314FF0E023C4
:101C3000012230BCC3F80821704700BF00810D406D
:101C400000441F400000AA420000B442108D012051
:101C50000C8D0120148D0120188D01200000FF0F34
:101C600000E400E00088002019730200314B40F6C8
:101C7000617210B5C3F8202140F2044400F0D4F89A
:101C80002D4A2E49D2F880302D4843F00303C2F884
:101C900080302C4BC1F8604102681A4203D1D1F860
:101CA000A8319A071BD0254A4FF00041244B5963B5
:101CB000D2F8403143F00203C2F84031D2F840314B
:101CC0009B07FBD44FF400304FF0E0211C4B4FF04A
:101CD0000042C1F88C0219209A6300F095F8184A66
:101CE0004FF08040154C002190630A20164B116084
:101CF0004FF42072C4F8A801184600F089F84FF498
:101D0000800203464FF4810040F243111860C4F88A
:101D100058311A640D4B0E4AC4F84811C3F8042216
:101D20004FF0E0224FF400310123C2F80C11C4F847
:101D3000403110BD00800D4000C00F4000002E401B
:101D400000900D40001C1E000000002000880020B4
:101D50000175020008B50E4B1B6E9B0700D4FBBE3D
:101D600072B60C4B00200C4AC3F8400103F16043EB
:101D70000A49A3F55F2311649D46BFF34F8F4FF4CB
:101D800000130748074ADB6902609B68984700BF59
:101D900000441F4000002E4000C00A400300200005
:101DA00000802020000012EB104BA020104AD96EBA
:101DB00041F4403110B4D96640F23764D96E41F431
:101DC0004071D96654649064936C1B06FCD4094A34
:101DD00040F23761A02351649364936C13F0800345
:101DE000FBD1054A13705DF8044B704700C00F40EB
:101DF00000400C4000800C404A8D0120F8B500BF27
:101E0000F8BC08BC9E4670475FF800F0416C0200C9
:101E10005FF800F0E1C602005FF800F041700200D8
:101E20005FF800F0DD8802005FF800F0717C0200CE
:101E30005FF800F0798502005FF800F06D000000A7
:101E40005FF800F0D1C7020045000000FD0300006C
:101E500051110000613200009D450200D969020065
:101E600001000000160355005300420020005300FB
:101E700065007200690061006C00000018035400E6
:101E8000650065006E0073007900640075006900EC
:101E90006E006F000403090409026200030100C020
:101EA00032080B00020202010009040000010202D4
:101EB000010005240010010524010101042402068B
:101EC0000524060001070582031000100904010023
:101ED000020A000000070503024000000705840213
:101EE0004000000904020002FF6AFF0007058102AA
:101EF00040000107050102400001000009026200E4
:101F0000030100C032080B000202020100090400B4
:101F10000001020201000524001001052401010155
:101F200004240206052406000107058203100005AB
:101F300009040100020A0000000705030200020074
:101F4000070584020002000904020002FF6AC700BC
:101F500007058102000201070501020002010000DD
:101F60000A060002EF02014001000000000000002C
:101F70000000000000000000000000000000000061
:101F80000000000000000000000000000000000051
:101F90000548064B1B1AD90F01EBA301491002D0CB
:101FA000034B03B118477047C08A0020C08A002045
:101FB0000000000008B5054B1BB105490548AFF30B
:101FC0000080BDE80840FFF7E3BF00BF000000004D
:101FD0001883012000D4036000F08CB92DE9F04F84
:101FE000314D83B0314C824689462E68304F40F2E5
:101FF000EE28DFF8D0B028F0CBF923782BB33B786C
:10200000DA0722D52B68DBF800209B1A0E2B1CD98F
:102010000025284EDFF8B0802F463246494650460C
:1020200029F088F8431C044625D0612C20D0702C60
:1020300018D0D9F8001020482CF00AFEB4F168003E
:1020400018BF012003B0BDE8F08F2B6822789B1BDE
:102050002AB1B3F5FA6FDBD828F09AF9CBE74345FC
:10206000FAD9D5E7D8F800002DF026FA0746D4E7CC
:10207000D8F80050D1E711490220CDE9005728F0E7
:10208000CDFC0E490F2028F0C9FC0D482CF044FE71
:10209000684600F07BF84FF47A7000F0E9F8684683
:1020A00000F038F90020CDE7248D0120538D012068
:1020B000528D0120947B0020C004002069000000A4
:1020C0009C7B0020348D012030830120704700BFAD
:1020D000704700BF034B10B50446036024F006FDB3
:1020E000204610BD2C64002030B51C4C97B04FF436
:1020F000A053002122461A480BF036FE032219494C
:1021000002AD19481DF0AEF90A221849184805F029
:1021100087FF4FF47A730A2116481A460091194630
:1021200012F01AFF4822002104A82CF091FA40F680
:10213000B8301E21234600220095CDE90201C821B6
:102140000D4808F017F80D490D481BF08BFB0D49A1
:102150000D4811F0B9FD17B030BD00BF108301204C
:102160008CF10020F8830020D8E30020AC8C012003
:10217000D09D0020D8B50020FCEA0020008301207B
:1021800078780120D482012084FA002070B52D4C8B
:10219000054601212C4828F07DF8204626F0FAFC5F
:1021A000284600F0A1F90121284828F073F82046BC
:1021B00026F0F0FC264E00F035FA0121254828F0E3
:1021C00069F8204626F0E6FC00F0D8FA0121224802
:1021D00028F060F8204626F0DDFC00F05FFE0121CB
:1021E0001E4828F057F8204626F0D4FCFFF77CFF65
:1021F00001211B4828F04EF8204626F0CBFC012197
:10220000184828F047F8204626F0C4FC284600F07D
:102210006BFE0121144828F03DF8204626F0BAFC58
:102220004FF47A71304602F091FF304602F0B6FF6B
:1022300001210E4828F02EF82046BDE8704026F017
:10224000A9BC00BFE87D0020B8540020BC54002089
:102250009C9C002060540020C0540020C4540020E6
:10226000C8540020CC540020D0540020D454002066
:102270002DE9F0410B210546194828F00BF8194FBC
:10228000194826F087FC194823F0FEF83C781748D7
:10229000E4B223F0FBF801210D2026F043FDECB160
:1022A000DFF84C80114E404603F0CEF901210D209D
:1022B00026F0FCFC284626F07BFC00210D2026F0B1
:1022C000F5FC284626F074FC304623F0DDF83C7817
:1022D0003046E4B223F0DAF8002CE4D1BDE8F08116
:1022E000D85400201A840020E87D0020B07B012013
:1022F0001C74012008B5054823F0C6F8044B0022E1
:1023000002481A70BDE8084023F0C0B8B07B012035
:102310001A84002010B5044600F05CFE204600F050
:102320008FFE03490348BDE810400BF021BD00BFFC
:10233000108301208CF10020054B10B5044603608A
:1023400024F0D4FB204626F0BFFD204610BD00BF80
:102350002C64002010B5044626F0B6FD204610BDC2
:1023600010B5044626F0B0FD204610BDF8B5404D2E
:102370000326404F404C284623F0CCFB3A463F49C9
:1023800028462CF013FA204624F09AFE20463C4CB6
:102390003A463C4905252CF009FA20461CF04CFB36
:1023A0002046394C3A4639492CF000FA20461CF0B8
:1023B0004DFB2046364C3A4636492CF0F7F9364963
:1023C00004F10800C4E9006524F028FE334904F54F
:1023D0008A70C4E9436524F021FE314904F5087090
:1023E000C4E9866524F01AFE2E4904F54B70C4E951
:1023F000C96524F013FEC4F83064C4F8345404F5FD
:102400008760294924F00AFEC4F83C65C4F84055A9
:1024100004F24450254924F001FEC4F84866C4F88B
:102420004C5604F5CA60224924F0F8FDC4F85467FC
:10243000C4F8585704F25C701E4924F0EFFDC4F84C
:102440006068C4F8645804F668001B491B4C24F00B
:10245000E5FD3A461A4900202CF0A8F9204623F061
:1024600003F83A4620461749BDE8F8402CF09EB9DB
:102470000C8301200C7E00201083012065010000E8
:102480000083012001510200D48201205D0100007F
:1024900040830120610100005C04002068040020EA
:1024A0007004002078040020800400208C040020A8
:1024B0009C040020A8040020B4040020B07B01206C
:1024C00059050000E934020038B5064D05F50664EB
:1024D00004F1080024F08AFDAC42A4F58674F7D11B
:1024E00038BD00BF4083012008B500220A213548CD
:1024F00001F0C4FD01220A21334803F0A3F80222AF
:102500001421324808F05CFD03220A2130480BF008
:1025100029FC04212F4811F097F905212E4800F0DD
:10252000FDFF06212D481BF09BF907220A212C48AC
:1025300004F03CF808212B4806F0F0FB09212A485A
:1025400012F002F90A221E21284812F077FC0B2211
:102550001E21274815F032FD0C221E21254819F0B6
:10256000BBF80D21244807F089FD0E21234802F015
:10257000D7FC0F21224802F0E7FD10220A21214852
:1025800005F088FD112120481CF0CEFF12211F48C4
:102590001DF0D6FA13211E481EF08AF914211D4899
:1025A00000F04AFF15211C481CF07AFE0A211B4846
:1025B000162221F025FB17211948BDE8084011F02B
:1025C00081BB00BFA08C00201C7401209406012058
:1025D0008CF10020C4EE00209C930020787801202C
:1025E0007CA7002080B3002014B50020D8B50020BF
:1025F000C0AE002068960020FCEA00206C9B002002
:102600009C9C0020D09D0020D8E3002030C00020FA
:10261000E0E50020F4A50020B8A600205C2E0120F3
:1026200084FA002008B54FF480713C4823F0B4FBD5
:102630004FF400713A4823F0AFFB4FF4A0613948E2
:1026400023F0AAFB4FF4C061374823F0A5FB4FF4F9
:10265000E061364823F0A0FB4FF40061344823F0DA
:102660009BFB4FF41061334823F096FB4FF430612D
:10267000314823F091FB4FF44061304823F08CFB4C
:102680004FF470612E4823F087FB4FF480412D48B2
:1026900023F082FB4FF482412B4823F07DFB4FF463
:1026A00084412A4823F078FB4FF48641284823F0E0
:1026B00073FB4FF48841274823F06EFB4FF48A41A7
:1026C000254823F069FB4FF48C41244823F064FB38
:1026D0004FF48E41224823F05FFB4FF49041214894
:1026E00023F05AFB4FF492411F4823F055FB4FF45F
:1026F00094411E4823F050FB4FF498411C4823F0AE
:102700004BFB4FF49A411B4823F046FB4FF4A0418A
:102710001948BDE8084023F03FBB00BF1C740120EE
:10272000D09D0020940601208CF10020D8B5002017
:10273000C0AE0020689600207CA700205C2E0120FF
:10274000A08C00209C9300207878012080B300208A
:1027500014B50020FCEA0020F4A50020D8E30020F6
:1027600030C00020B8A6002084FA0020E0E5002058
:102770009C9C00206C9B0020C4EE00202DE9F84FAB
:10278000DFF804B40021F04C5846DFF8009401F063
:1027900043FB00210246204608F05AFF0021204654
:1027A000EA4D08F073FE01210246204608F050FF72
:1027B00000214846DFF8D8A30CF038FC022102467D
:1027C000204608F045FF00212846E14E04F0A2F81B
:1027D00003210246204608F03BFF00215046DFF867
:1027E000B48313F0F1F804210246204608F030FFCC
:1027F0000021D84815F0B8FE05210246204608F011
:1028000027FF0021D4481EF0DBF9062102462046AE
:1028100008F01EFF00212046D04F08F049FE00219D
:102820000246584601F01CFB0121204608F040FEFC
:1028300000210246204608F07DFE0221204608F0D5
:1028400037FE0021024648460CF03CFC032120469E
:1028500008F02EFE00210246284604F07FF80421ED
:10286000204608F025FE00210246504613F0D4F819
:102870000521204608F01CFE00210246B54815F04F
:102880009BFE0621204608F013FE00210246B248B6
:102890001EF0B6F90021204608F022FE0021024673
:1028A000584601F0F3FA0021204608F019FE0021F5
:1028B0000246204608F056FE0021204608F010FE91
:1028C0000021024648460CF013FC0021204608F087
:1028D00007FE00210246284604F056F80021204653
:1028E00008F0FEFD00210246504613F0ABF800212F
:1028F000204608F0F5FD00210246964815F072FECC
:102900000021204608F0ECFD0021024692481EF00E
:102910008DF9002192481DF035F9002102469148B9
:1029200000F0BCFE0021504613F03CF800210246A6
:1029300030461BF03FF8002189481DF00BF90021BB
:10294000024630461BF04CF80021864800F080FE1D
:102950000021024630461BF059F8002130461BF09A
:1029600019F800210246284604F066F80021304696
:102970001BF000F800210246504613F037F83046AD
:10298000794E00211BF006F800210246304621F066
:1029900005FB0021284603F0CFFF002102465846E0
:1029A00001F0A0FA0021284603F0C6FF00210246EC
:1029B000204608F0EDFD0021284603F0BDFF002170
:1029C000024648460CF0C0FB0021284603F0B4FF45
:1029D00000210246284604F003F80021284603F0AF
:1029E000ABFF00210246614806F0A0FA002128460C
:1029F00003F0A2FF00210246504613F039F80021EF
:102A0000284603F099FF00210246524815F000FEC7
:102A10000021284603F090FF00210246544819F097
:102A2000FDF90021284603F087FF002102465148A6
:102A300007F0D2FC0021284603F07EFF0021024669
:102A4000404605F067FC0021284603F075FF002191
:102A5000024641481EF000F90021474811F0A4FE4B
:102A600000210246284603F0A5FF002143481CF040
:102A700079FD434B02460021184602F035FE002145
:102A8000384800F0D5FD00210246404605F06EFCB6
:102A90000021584601F0D2F901210246404605F0D6
:102AA00065FC0021304621F055FA022102464046DD
:102AB00005F05CFC002128481EF092F80321024634
:102AC000404605F053FC002148460CF0D3FA04219F
:102AD0000246404605F04AFC0021404605F008FC4D
:102AE0000021024625481CF04DFD002148460CF00F
:102AF000AFFA00210246204608F0C4FD002120461E
:102B000008F000FD0021024648460CF007FB0021BA
:102B10001C4802F05BFA00210246584601F0CCF94D
:102B20000021304621F028FA00210246584601F0E3
:102B30001BFA0021304621F01FFA114B02460021FA
:102B4000184602F0FDFD27E0940601207CA7002036
:102B500078780120C0AE0020E0E50020B8A6002073
:102B600030C000209C9300205C2E012080B3002008
:102B700068960020FCEA002014B50020D8E300206D
:102B80001C7401206C9B0020A08C00208CF1002084
:102B9000D8B50020D09D00200021304621F0ECF96E
:102BA00000210246204608F03BFD0021304621F07E
:102BB000E3F90021024648460CF0F2FA00213046C3
:102BC00021F0DAF900210246504612F093FF00216D
:102BD000304621F0D1F900210246A64815F044FD07
:102BE0000021304621F0C8F900210246A24819F020
:102BF00041F90021304621F0BFF9002102469F48EB
:102C000007F02CFC0021304621F0B6F900210246E5
:102C1000404605F0D9FB30460021994E21F0ACF931
:102C20000021024697481EF059F8002138461CF052
:102C300061FB00210246584601F06AF9002138463E
:102C40001CF058FB00210246204608F0B9FC002188
:102C500038461CF04FFB0021024648460CF01CFA97
:102C6000002138461CF046FB00210246284603F0AE
:102C7000CDFE002138461CF03DFB00210246824873
:102C800006F06AF9002138461CF034FB00210246A8
:102C9000504612F003FF002138461CF02BFB0021A8
:102CA0000246744815F072FC002138461CF022FBE5
:102CB00000210246704819F085F8002138461CF0C2
:102CC00019FB002102466D4807F09CFB00213846A5
:102CD0001CF010FB00210246404605F031FB38464F
:102CE00000211CF007FB0021024666481DF0CAFFC8
:102CF0000021304620F0AEFD00210246584601F08A
:102D00001DF90021304620F0A5FD604B0246002150
:102D1000184602F0FFFC0021304620F09BFD002108
:102D20000246204608F064FC0021304620F092FD67
:102D30000021024648460CF01DFA0021304620F0E2
:102D400089FD00210246284603F08CFE0021304612
:102D50004F4D20F07FFD002102464B4806F012F94E
:102D60000021304620F076FD00210246504612F048
:102D7000ABFE0021304620F06DFD002102463D48AB
:102D800015F05CFC0021304620F064FD0021024675
:102D9000394819F059F80021304620F05BFD002138
:102DA0000246364807F044FB0021304620F052FD31
:102DB00000210246404605F0F1FA3046002120F09D
:102DC00049FD002102462F481DF072FF00212846D0
:102DD00011F078F901210246204608F053FC012148
:102DE0002C481CF0B7FE002102462B4800F040FCA6
:102DF0000021284611F076F900210246264800F00D
:102E000063FC00211D4807F0D7FA002102461A484A
:102E100018F0EEFF0021194807F0BEFA0021024623
:102E2000284611F06FF90021144807F0C5FA002177
:102E30000246284611F07CF900210F4818F0B0FF37
:102E400000210246284611F089F90121204608F0A8
:102E500059FB00210246284611F096F901210D4840
:102E60001CF090FE002102462846BDE8F84F11F004
:102E7000A1B900BFC0AE002068960020FCEA002087
:102E8000F4A50020E0E5002080B300201C740120A0
:102E900084FA002030C000209C93002008B50B4825
:102EA00001F078F80A4808F007FC0A480CF08EF99F
:102EB000094803F0EDFD094812F032FE084815F00C
:102EC000E9FB0848BDE808401DF01EBFA08C0020AB
:102ED000940601208CF100207CA70020D8B50020AA
:102EE000C0AE0020E0E500202F4800234FF48032E0
:102EF0005F2130B5046883B02C4809250093234630
:102F000022F06AF9012023464FF4803200908C2190
:102F1000274822F061F9022023464FF480320090C6
:102F20006521244822F058F9032023464FF48032CB
:102F300000906421204822F04FF9042023464FF4EA
:102F40008032009062211D4822F046F90520234678
:102F50004FF4803200906421194822F03DF9062098
:102F600023464FF4803200906421164822F034F951
:102F7000072023464FF4803200906421124822F04B
:102F80002BF9082023464FF48032009078210F4817
:102F900022F022F923464FF4803261210C4800953B
:102FA00022F01AF903B030BD44140020A08C002098
:102FB0001C740120940601208CF100207CA70020C5
:102FC000D8B50020C0AE002068960020D09D00201B
:102FD0005C2E012008B5104822F0C8F80F4822F0F6
:102FE000C5F80F4822F0C2F80E4822F0BFF80E488C
:102FF00022F0BCF80D4822F0B9F80D4822F0B6F8DE
:103000000C4822F0B3F80C4822F0B0F80B48BDE8A9
:10301000084022F0ABB800BFA08C00201C74012037
:10302000940601208CF100207CA70020D8B5002058
:10303000C0AE002068960020D09D00205C2E0120AC
:1030400008B50021144822F0B5F80021134822F0F9
:10305000B1F80021124822F0ADF80021114822F009
:10306000A9F80021104822F0A5F800210F4822F00D
:10307000A1F800210E4822F09DF800210D4822F011
:1030800099F800210C4822F095F800210B48BDE882
:10309000084022F08FB800BFA08C00201C740120D3
:1030A000940601208CF100207CA70020D8B50020D8
:1030B000C0AE002068960020D09D00205C2E01202C
:1030C00038B5794D794C7A49284600F0DFFC28461E
:1030D000784D224678492BF069FB7849284602F062
:1030E000A3FA2846764D224676492BF05FFB7649B7
:1030F000284607F041FF2846744D224674492BF0BC
:1031000055FB744928460AF0E9FD2846724D2246CF
:1031100072492BF04BFB7249284610F085FB28467C
:10312000704D224670492BF041FB7049284600F053
:10313000E7F928466E4D22466E492BF037FB6E4963
:1031400028461AF079FB28466C4D22466C492BF034
:103150002DFB6C49284603F0DFF928466A4D2246CC
:103160006A492BF023FB6A49284605F0C1FD284631
:10317000684D224668492BF019FB6849284611F032
:10318000D9FA2846664D224666492BF00FFB664960
:10319000284611F003FE2846644D224664492BF070
:1031A00005FB6449284614F0F9FE2846624D224684
:1031B00062492BF0FBFA6249284618F065FA284666
:1031C000604D224660492BF0F1FA6049284606F02E
:1031D0003DFF28465E4D22465E492BF0E7FA5E49E8
:1031E000284601F08FFE28465C4D22465C492BF0B4
:1031F000DDFA5C49284601F091FF28465A4D2246E7
:103200005A492BF0D3FA5A49284604F0F1FE2846D1
:10321000584D224658492BF0C9FA584928461CF007
:1032200011F92846564D224656492BF0BFFA564909
:1032300028461CF077FC2846544D224654492BF072
:10324000B5FA544928461DF0ADFA2846524D22469B
:1032500052492BF0ABFA5249284600F0E3F82846D1
:10326000504D224650492BF0A1FA504928461CF0F7
:103270000DF828464E4D22464E492BF097FA4E49FE
:10328000284620F05FFC28464C4D22464C492BF046
:103290008DFA4C49284610F0F3FC224628464A494C
:1032A000BDE838402BF082BAA08C00200C7E0020B4
:1032B0008C0300201C740120691B00005C040020AA
:1032C0009406012079360000700400208CF1002063
:1032D0006D8E000078040020C4EE002095C7000029
:1032E000940300209C930020491701009C030020B8
:1032F00078780120CD140000A80300207CA70020CE
:10330000ADB701008004002080B3002041460000DA
:10331000B403002014B50020456D0000C403002054
:10332000D8B50020952701008C040020C0AE0020F5
:10333000413001009C04002068960020F55F0100E8
:10334000A8040020FCEA0020CD970100D40300204F
:103350006C9B0020A1810000EC0300209C9C0020BD
:10336000652F0000F8030020D09D0020553100009B
:10337000B4040020D8E300204560000004040020CD
:1033800030C000202DD4010014040020E0E500200E
:1033900089DA010024040020F4A50020BDE7010023
:1033A00034040020B8A600205D1400004004002072
:1033B0005C2E012075D201004C04002084FA00200C
:1033C000951C020054040020851C0100034B10B51D
:1033D0000446036020F082FA204610BD4C6A0020AB
:1033E000054B10B50446036020F078FA204625F01E
:1033F0006BFD204610BD00BF4C6A002038B5074B5E
:1034000015461C6825F028FC054B02462846A3FB00
:103410000431BDE83840890922F0EABF248D01203B
:10342000D34D621010B5044620F024FA014B20461B
:10343000236010BD4C6A002020F02ABA034B10B55F
:103440000446036000F0C0FA204610BDF47300206B
:10345000054B10B50446036000F0B6FA204625F08F
:1034600033FD204610BD00BFF473002010B50446A4
:1034700082B008461946CDE9000300F055F8019ADC
:103480000021009800F002FA204623F0E1FE034AF2
:10349000002320462260237102B010BDD4640020B6
:1034A00030B58DB0044640230022014603A800F049
:1034B000D5F903A920460F4D00F058F801A823F0D4
:1034C000C7FE002101AB03AA20468DF80810019524
:1034D00000F0F4F901A8019523F0C0FE064A074B5D
:1034E00004A8CDE9032323F0C3FE03A823F0B6FE0E
:1034F0000DB030BDB864002064620020A4610020DB
:1035000010B5044600F0F6F80023034A2046226076
:10351000C4E9B13310BD00BFF473002000F010B94E
:1035200026F04EBE26F090BE70B5D0F8C85282B0DC
:103530000C468DB12B6820465E681CF06FFD01467D
:10354000204601911CF06CFD019902463346284645
:1035500002B0BDE87040184706462921024823F012
:10356000B3FBD6F8C852E5E7D85100202DE9F8435F
:10357000D0F8C85208460F4600241CF04FFDDFF873
:103580005C80DFF85C90461E14E026F019FE0346CE
:103590003846002B18DD1CF043FDA04214D92B68DF
:1035A0005B694B4516D126F04FFE431C0CD001340D
:1035B00006F8010F2B681B694345E6D0284698475B
:1035C00003463846002BE6DC21463846BDE8F84382
:1035D0001CF032BD28469847E7E700BFB115000050
:1035E000B515000000F52F7021F04EBF00F52F70CB
:1035F00021F04CBF70B50D460446164678B1002D3B
:1036000005DD2A464FF4F171084823F0BBFB23681F
:103610003246294620465B69BDE87040184740F2B3
:10362000C511024823F050FBE9E700BFFC5200201F
:1036300038B50D1E044604DD2A461C21034823F03C
:10364000A1FB682303FB05405C3038BDFC52002021
:1036500038B50D1E044604DD2A462321034823F015
:1036600091FB682303FB0540C43038BDFC520020A9
:1036700070B50D1E0446164604DD2A463121064863
:1036800023F080FB6423314603FB0540BDE8704016
:1036900000F596701CF06EBDFC52002070B50D1E3A
:1036A0000446164604DD2A463B21064823F06AFB01
:1036B0006423314603FB0540BDE8704000F5C87047
:1036C0001CF06ABEFC52002070B50D1E0446164662
:1036D00004DD2A464F21064823F054FB642331467B
:1036E00003FB0540BDE8704000F516701AF0FCBD04
:1036F000FC52002010B5044622F038FB0F4B204648
:1037000040F85C3B20F0E2FF04F1C4001AF086FEB2
:1037100004F596701CF022FD04F5C8701CF030FE14
:1037200004F5FA701AF0E0FC04F516701AF0D0FDFA
:1037300004F52F7021F098FE204610BD487400203B
:103740002DE9F0430446A1B0002522F01DFB04F151
:103750005C08261D04F1C40704F59679404621F063
:103760005DF8364A2146404620F0BCFF29464046D7
:1037700023F050F83346324A782102A800952DF004
:10378000A5F802A9404604F5C87823F07FF9384629
:103790001AF0CCFE2B4A214638461AF04BFE294639
:1037A000384623F037F83346274A782102A8009597
:1037B0002DF08CF802A9384604F5FA7723F066F963
:1037C00048461CF009FD3346204A782102A800959E
:1037D0002DF07CF802A9484604F5167423F056F93A
:1037E00040461CF029FE3346194A782102A800956C
:1037F0002DF06CF802A9404623F048F938461AF03B
:1038000081FC3346134A782102A800952DF05EF81A
:1038100002A9384623F03AF920461AF0C3FD334690
:103820000D4A782102A800952DF050F802A92046F3
:1038300023F02CF921B0BDE8F08300BF851600000D
:10384000805300201D1A00009C530020B453002018
:10385000D0530020F05300200C540020F8B5161E61
:1038600005460C461F4604DD40F23711064823F09A
:1038700089FA642328463A4603FB064101F596710E
:103880001CF088FC2846F8BDFC52002070B50D1EC7
:103890000446164605DD2A4640F24111064823F04B
:1038A00071FA6423314603FB0540BDE8704000F522
:1038B000C8701CF081BD00BFFC520020F8B50D1E81
:1038C000044616461F4605DD2A464FF4A9710748EF
:1038D00023F058FA64233A46314603FB0540BDE81D
:1038E000F84000F516701AF00FBD00BFFC52002022
:1038F0002DE9F041161E82B005460C461F4604DD38
:1039000040F2F1111D4823F03DFADFF87C80284693
:1039100023F09EFC0022C5F800802368DB682A7132
:10392000174A934220D104F52F7021F0ADFD216894
:1039300032463B4668468E692146B047694628466E
:103940001AF0F6FE6846CDF8008023F087FC236865
:103950000C4A1B6993420AD104F52F7021F096FDA1
:10396000284602B0BDE8F08120469847DFE72046B0
:103970009847284602B0BDE8F08100BFFC52002005
:10398000751600007D160000D464002030B5044692
:1039900083B00D4631B120462946FFF7A9FF2046E6
:1039A00003B030BD40F2D1110648CDE9002323F029
:1039B0008BF920462946DDE90023FFF799FF2046D1
:1039C00003B030BDFC52002010B5174B044600F583
:1039D0002F70236021F040FDD4F8583204F51670A2
:1039E0005B689847D4F8F43104F5FA705B6898473F
:1039F000D4F8903104F5C8705B689847D4F82C313E
:103A000004F596705B689847D4F8C43004F1C4009C
:103A10005B689847E36D04F15C005B68984720465B
:103A200022F08CF9204610BD48740020F0B583B018
:103A300004460D46134F684623F00AFC00236946EE
:103A4000204600978DF8043000F0EAFC9DF8042031
:103A50000646012A06D15DB16846009723F0FEFBB9
:103A600003B0F0BD2521084823F08CF9002DF3D1D7
:103A70003146204600F0E0FE6846009723F0EEFB5A
:103A800003B0F0BDCC5B00206454002010B50446A8
:103A900000F0AAFA0C4B04F29450236021F0E4FCED
:103AA00004F29C5023F0D4FB084A00230921C4F8F7
:103AB0009C2584F8A035064826F0ECFB054825F047
:103AC00069F8204610BD00BF80740020F46100201A
:103AD000AC540020E87D002010B5094A0446094B8B
:103AE00000F29C502260C4F89C3523F0B7FB04F22E
:103AF000945021F0B1FC204600F0BEFD204610BDE0
:103B000080740020F461002010B50B4A04460B4B72
:103B100000F29C502260C4F89C3523F09FFB04F215
:103B2000945021F099FC204600F0A6FD204625F097
:103B3000CBF9204610BD00BF80740020F461002046
:103B40002DE9F04705218AB00446574826F0A2FB2C
:103B5000564825F01FF802A823F07AFB544D0023A5
:103B600002A9204602958DF80C3000F059FC9DF812
:103B70000C3004F2945613F0FD0F18BF0746304680
:103B800008BF002721F080FC304694F8B46521F08E
:103B90007DFC36B902A8029523F060FB0AB0BDE8AF
:103BA000F08704A8DFF80C8123F052FB94F8A025DD
:103BB000D4F8B035CDF810808DF81420002B69D1E1
:103BC000002A67D1012104A824F002FC94F8A02562
:103BD0009DF814309A424FD0D4F8A82506AED4F8F8
:103BE000AC3512F10109304643F1000AC4F8A8953A
:103BF000C4F8ACA522F0C6FB4A46534620460096C0
:103C000000F0D6FD304622F065FB0021204600F092
:103C100047FBD0B19DF814903046DFF89CA023F00C
:103C200017FBA9F10109204632460021B9FA89F9AA
:103C3000CDF818A04FEA59198DF81C9000F018FB28
:103C40003046CDF818A023F009FB304623F000FBE6
:103C50009DF81430314620468DF81C30CDF8188080
:103C600000F0B6FF3046CDF8188023F0F7FA04A92B
:103C700004F29C5024F0A8FBD4F8B035013304A81A
:103C8000CDF81080BB4228BF0023C4F8B03523F024
:103C9000E5FA7FE7B3EB570FF0D1012AEED100210F
:103CA00004A824F095FB91E75C540020E87D0020F7
:103CB000CC5B0020F4610020486200202DE9F04731
:103CC000054686B018461E460F46904624F082FBF5
:103CD00048BB02ACDFF8BCA04FF00209204623F03D
:103CE000B7FA3379284621468DF80C30CDF808A074
:103CF00000F032FE2046CDF808A023F0AFFA244EA3
:103D0000204623F0A5FA28464246394623468DF838
:103D10000C90029600F0DAFA2046029623F09EFA02
:103D200006B0BDE8F087002305F2945002ACDFF83E
:103D300064A0C5F8B0359946019021F0A5FB337910
:103D40000198A3F10103B3FA83F35B0985F8B43555
:103D500021F09CFB204623F07BFA3379214628464C
:103D60008DF80C30CDF808A000F094FE2046CDF878
:103D700008A023F073FA204622F004FB28462246CE
:103D8000314600F0D3FC204622F0A4FAB7E700BF8A
:103D9000105C0020F46100208C2070470C307047CC
:103DA000704700BF704700BF704700BF034B10B59E
:103DB0000446036023F05CFA204610BDB87400206E
:103DC000054B10B50446036023F052FA204625F057
:103DD0007BF8204610BD00BFB874002070B50D46BA
:103DE0000446164678B1002D05DD2A4640F23161C1
:103DF000084822F0C7FF2368324629462046DB697F
:103E0000BDE8704018474FF4C461024822F05CFFDF
:103E1000E9E700BFE454002038B50D1E044604DD78
:103E20002A465221044822F0ADFF682303FB0540D7
:103E300000F5967038BD00BFE454002038B50D1E63
:103E4000044604DD2A465921044822F09BFF6823DA
:103E500003FB054000F5CA7038BD00BFE4540020E4
:103E600070B50D1E0446164604DD2A466721064835
:103E700022F088FF6423314603FB0540BDE8704013
:103E800000F5FE701EF0FCBCE454002070B50D1E61
:103E90000446164604DD2A467121064822F072FFC8
:103EA0006423314603FB0540BDE8704000F51870FF
:103EB0001EF0A6BEE454002070B50D1E0446164642
:103EC00004DD2A467B21064822F05CFF642331464C
:103ED00003FB0540BDE8704000F5317001F030BBD8
:103EE000E454002070B50D1E0446164604DD2A4633
:103EF0008521064822F046FF6423314603FB054036
:103F0000BDE8704000F54A701FF096B9E4540020F7
:103F100070B50D1E0446164604DD2A46902106485B
:103F200022F030FF6423314603FB0540BDE87040BA
:103F300000F563701FF092BBE454002070B50D1EB5
:103F40000446164604DD2A46AF21064822F01AFF31
:103F50006423314603FB0540BDE8704000F59760DF
:103F600022F096BBE454002070B50D1E04461646A0
:103F700004DD2A46B921064822F004FF64233146B5
:103F800003FB0540BDE8704000F21C5020F03ABF32
:103F9000E454002038B500F5FE750446284622F0AA
:103FA00001FDC0B1204621F0F9FE014628461EF071
:103FB00077FC204621F0F2FE0146284601311EF032
:103FC0006FFC204621F0EAFE014628460231BDE89A
:103FD00038401EF065BC4FF49471024822F074FE24
:103FE000E0E700BFE454002038B5044621F0AEF805
:103FF000204B04F5967004F5B16523601EF06AFA53
:1040000004F5CA7020F062FB04F5FE701EF02CFC73
:1040100004F518701EF0E8FD04F5317001F084FA23
:1040200004F54A701FF0FCF804F563701FF00AFBFA
:1040300004F57C701CF0B8FA04F254401CF01CFB30
:1040400004F5976022F018FB04F21C5020F0CEFE1D
:1040500004F5B06021F008FA284623F0F9F80021B1
:10406000054B284684F88C15C4F888351CF042FAB4
:10407000204638BDD4740020CC5B00202DE9F047E9
:104080000446A0B08946114604F59678002521F033
:104090006BF8261D404604F5CA771EF0E1FA664A21
:1040A000404621461EF022FA4046294604F5FE7A93
:1040B00022F0B0FB3346614A782102A800952CF02B
:1040C00005FC02A9404604F5187822F0DFFC3846CA
:1040D00020F0A4FB5A4A3846214620F003FB38461C
:1040E000294622F097FB3346564A782102A80095CC
:1040F0002CF0ECFB02A9384604F5317722F0C6FC1F
:1041000050461EF00DFC33464F4A782102A8009518
:104110002CF0DCFB02A9504622F0B8FC40461EF011
:10412000DFFD3346494A782102A800952CF0CEFBEA
:1041300002A9404604F54A7822F0A8FC384601F06E
:104140004FFA3346424A782102A800952CF0BEFB74
:1041500002A9384604F5637722F098FC40461FF028
:1041600049F933463B4A782102A800952CF0AEFB72
:1041700002A9404604F57C7822F088FC38461FF0FE
:104180004BFB3346344A782102A800952CF09EFB65
:1041900002A9384604F2544722F078FC40461CF04D
:1041A0000FFA33462D4A782102A800952CF08EFB99
:1041B00002A9404604F5976822F068FC38461CF0D6
:1041C000B3FA3346264A782102A800952CF07EFBEC
:1041D00002A9384604F21C5722F058FC404622F04F
:1041E000D3FA33461F4A782102A800952CF06EFBC3
:1041F00002A9404622F04AFC384620F0B9FE1A4A8D
:104200003346782102A800952CF060FB02A93846BD
:1042100022F03CFC8C224946204620F0EDFE10B9ED
:1042200020B0BDE8F087024640F277210F4820B069
:10423000BDE8F04722F0A6BDE1250000345600207D
:104240006D1E00004C56002064560020845600204D
:10425000A8560020C4560020E05600200057002039
:10426000205700204057002060570020E4540020D1
:1042700070B50D1E0446164605DD2A4640F28D2116
:10428000064822F07FFD6423314603FB0540BDE86C
:10429000704000F5317001F063B900BFE4540020B4
:1042A00038B50D1E044605DD2A464FF43D7106481B
:1042B00022F068FD642303FB0540BDE8384000F5AB
:1042C000317022F06FBB00BFE454002030B500F520
:1042D000187483B00D462046CDE9003222F062FB0F
:1042E000DDE9003230B12946204603B0BDE8304058
:1042F0001EF096BC40F27E310648CDE9002322F044
:10430000E3FC29462046DDE9002303B0BDE8304048
:104310001EF086BCE45400202DE9F0411E460368DF
:104320003C4DA6B05B6A044688461746AB426ED148
:10433000394D684622F094FF01216846009523F02C
:104340007FF830BB0021684623F07AF868BB41460D
:10435000684623F013F8002833D13946684623F025
:104360000DF8002839D13146684623F0F7F90028C6
:104370003FD10123002204F15C00694620F094FF44
:1043800000283DD16846009522F072FF26B0BDE8B6
:10439000F08102464FF46671204822F0F3FC0021C0
:1043A000684623F04DF80028D1D002464FF46871DA
:1043B0001A4822F0E7FC4146684622F0DFFF002859
:1043C000CBD0024640F2A631144822F0DBFC39463D
:1043D000684622F0D3FF0028C5D002464FF46B7127
:1043E0000E4822F0CFFC3146684623F0B7F900288A
:1043F000BFD0024640F2B231084822F0C3FCB8E711
:1044000002464FF46F71054822F0BCFCBAE79847AA
:104410008EE700BF311E0000B8740020E454002075
:1044200070B500F5B0660D460446304621F02CF814
:1044300004F5B16128461CF059F8D4F8904530468F
:1044400021F024F8204670BDF0B583B004460D4637
:10445000104601A923F05CFA48B1204622F0F8FE8C
:10446000154A022320462260237103B0F0BD05F5F2
:10447000B0670646384621F007F8019B012105F593
:10448000B160C5F890351CF035F8384620F0FEFFD5
:104490002B680A4A9B6A934209D1204622F0D8FE33
:1044A000054A002320462260237103B0F0BD314647
:1044B00028469847F1E700BF105C0020351E000039
:1044C0002DE9F04101F25447A2B004460D463846AA
:1044D00022F068FA30B305F5B06801A81BF0CAFFF6
:1044E000404620F0D1FFD5F8901501A822F046FFF4
:1044F0000646404620F0CAFFFEB9284621F04EFC91
:1045000001AA014638461CF0C3F8204622F0A0FE5E
:104510000E4B2671236001A81BF094FF204622B0A9
:10452000BDE8F081204622F093FE084A042320468D
:104530002260237122B0BDE8F081204622F088FE7F
:10454000024A022322602371E5E700BF105C0020CD
:104550002DE9F04385B0164605461F46DDF830804C
:10456000002879D0284621F019FCB042044626D80C
:10457000341B012C2DD0022C5FD0002C54D002AC67
:1045800005F51875DFF8EC80204622F061FE012366
:104590002846CDF808808DF80C3022F003FA002868
:1045A00054D028463A46314623461EF039FB204671
:1045B000CDF8088022F052FE05B0BDE8F083341B30
:1045C000034632464FF45371294822F03BFC012C3C
:1045D000D1D1E9462946424602AC484605F5187550
:1045E000FFF732FF2046DFF88C8022F031FE9DF885
:1045F00004302846CDF808808DF80C3022F0D2F92E
:1046000080B33A463146234628461EF009FB204631
:10461000CDF8088022F022FE4846CDF8008022F036
:104620001DFE05B0BDE8F08343463A4631462846B4
:1046300005B0BDE8F043FFF76FBEE946294602AC7E
:1046400005F518754846FFF73BFFCBE740F27E3192
:10465000074822F039FBA4E74FF45271044822F0D6
:1046600033FB7FE740F27E31014822F02DFBC8E7A3
:10467000E4540020105C002010B52A4A04462A4B5E
:1046800000F5B1602260C4F8883522F0E7FD04F53A
:10469000B06020F0E1FED4F81C3504F21C505B68D9
:1046A0009847D4F8B83404F597605B689847D4F815
:1046B000543404F254405B689847D4F8F03304F55E
:1046C0007C705B689847D4F88C3304F563705B6842
:1046D0009847D4F8283304F54A705B689847D4F8B3
:1046E000C43204F531705B689847D4F8603204F541
:1046F00018705B689847D4F8FC3104F5FE705B686D
:104700009847D4F8943104F5CA705B689847D4F898
:104710002C3104F596705B689847204620F04EFDDA
:10472000204610BDD4740020CC5B00202DE9F04160
:1047300000F21C57A2B004460E463846154622F039
:1047400031F910B922B0BDE8F08104F59768404610
:1047500022F028F9B0B901A820F080F8314601A86C
:1047600022F0F6FFC8B9204621F018FB01AB014644
:104770002A46384620F056FB01A820F057F822B010
:10478000BDE8F0810849284621F042FE0028E2D029
:104790004046294621F08CFFDDE7024640F2D93140
:1047A000024822F0EFFADEE778930020E45400207C
:1047B0002DE9F04100F21C57A2B0044616463846D7
:1047C0001D4622F0EFF810B922B0BDE8F08104F5E3
:1047D0009768404622F0E6F8B8B901A820F03EF804
:1047E00032462B4601A822F08DFEC8B9204621F0A2
:1047F000D5FA01AB411C289A384620F013FB01A8DA
:1048000020F014F822B0BDE8F0810949289821F081
:10481000FFFD0028E1D04046289921F049FFDCE760
:1048200002464FF47D71034822F0ACFADEE700BF88
:1048300078930020E45400202DE9F0430446ADF5C0
:104840000B7D0E4604F5976505A821F09BFD2846D3
:1048500022F0A8F8B8B904F54A75204621F09EFA6E
:10486000C71C284622F09EF8002840D104F5637545
:10487000284622F097F858B905A821F02BFD0DF530
:104880000B7DBDE8F08305A9284621F011FFE2E782
:104890002D4A231D4FF4807149AC009209A82B4A80
:1048A00001962CF013F8002309A920468DF8233136
:1048B0001EF0FCFB03A822F0CBFC05232846244D68
:1048C000394605AA8DF8103003AB009403951EF00D
:1048D000D5FE03A8039522F0C1FC20461EF0CEFBB6
:1048E00005A821F0F7FC0DF50B7DBDE8F0830DF573
:1048F000927840461EF012FA3146404622F03EFDC4
:10490000D0B909A8DFF8489022F0A2FC0523284678
:1049100005AA39468DF82830CDF8008009ABCDF8CE
:1049200024901EF099FC09A8CDF8249022F096FC62
:1049300040461EF0DBF999E7024640F2DF51054898
:1049400022F020FADDE700BFA855002080550020A6
:104950002C5C0020E45400202DE9F0430446ADF522
:104960004B7D0E4604F5976504A821F00BFD284603
:1049700022F018F8B8B904F54A75204621F00EFA6D
:104980000746284622F00EF800284FD104F563753B
:10499000284622F007F858B904A821F09BFC0DF531
:1049A0004B7DBDE8F08304A9284621F081FEE2E7B3
:1049B00048A80DF5097822F045FB48A9304623F0B8
:1049C0000FFD48A822F00CFB2E4A231D01900092F7
:1049D0004FF480712C4A08A82BF078FF002308A917
:1049E00040468DF81F311EF061FB02A8274C22F0D3
:1049F0002FFC0323394604AA28468DF80C30CDF845
:104A0000008002AB02941EF039FE02A8029422F04C
:104A100025FC40461EF032FB48A822F0E7FA04A825
:104A200021F058FC0DF54B7DBDE8F0830DF50978BC
:104A300040461EF073F93146404622F089FED0B957
:104A400048A8DFF8489022F003FC0323284604AA74
:104A500039468DF82431CDF8008048ABCDF820914F
:104A60001EF0FAFB48A8CDF8209122F0F7FB404653
:104A70001EF03CF98AE7024640F2B641044822F0B3
:104A800081F9DDE71C560020F45500202C5C002045
:104A9000E45400202DE9F0430446ADF54B7D0E466D
:104AA00004F5976504A821F06DFC284621F07AFFF3
:104AB000B8B904F54A75204621F070F9471C28461C
:104AC00021F070FF00284FD104F56375284621F0CE
:104AD00069FF58B904A821F0FDFB0DF54B7DBDE839
:104AE000F08304A9284621F0E3FDE2E748A80DF58C
:104AF000097822F0A7FA48A9304623F071FC48A8AB
:104B000022F06EFA2E4A231D019000924FF480711C
:104B10002C4A08A82BF0DAFE002308A940468DF89D
:104B20001F311EF0C3FA02A8274C22F091FB052387
:104B3000394604AA28468DF80C30CDF8008002AB27
:104B400002941EF09BFD02A8029422F087FB4046CF
:104B50001EF094FA48A822F049FA04A821F0BAFB02
:104B60000DF54B7DBDE8F0830DF5097840461EF04C
:104B7000D5F83146404622F0EBFDD0B948A8DFF821
:104B8000489022F065FB0523284604AA39468DF893
:104B90002431CDF8008048ABCDF820911EF05CFBAD
:104BA00048A8CDF8209122F059FB40461EF09EF80F
:104BB0008AE7024640F21951044822F0E3F8DDE7A3
:104BC000E0550020BC5500202C5C0020E45400205F
:104BD0002DE9F0430446ADF54B7D0E4604F597658F
:104BE00004A821F0CFFB284621F0DCFEB8B904F57B
:104BF0004A75204621F0D2F8871C284621F0D2FEC3
:104C000000284FD104F56375284621F0CBFE58B932
:104C100004A821F05FFB0DF54B7DBDE8F08304A9EE
:104C2000284621F045FDE2E748A80DF5097822F075
:104C300009FA48A9304623F0D3FB48A822F0D0F95E
:104C40002E4A231D019000924FF480712C4A08A82F
:104C50002BF03CFE002308A940468DF81F311EF0C2
:104C600025FA02A8274C22F0F3FA0623394604AAB3
:104C700028468DF80C30CDF8008002AB02941EF06F
:104C8000FDFC02A8029422F0E9FA40461EF0F6F973
:104C900048A822F0ABF904A821F01CFB0DF54B7DD0
:104CA000BDE8F0830DF5097840461EF037F831462F
:104CB000404622F04DFDD0B948A8DFF8489022F0D8
:104CC000C7FA0623284604AA39468DF82431CDF8C0
:104CD000008048ABCDF820911EF0BEFA48A8CDF870
:104CE000209122F0BBFA40461EF000F88AE7024607
:104CF00040F27C51044822F045F8DDE7745500206D
:104D0000605500202C5C0020E45400202DE9F04385
:104D1000D3B004466B4D2CA822F0A2FA002302AABD
:104D20002CA904F15C002C95029320F0D5FA002800
:104D300063D12CA822F0ACFF002303A92CA8039375
:104D400022F0F4FD00285FD19DF80C60002E52D0B7
:104D5000002304A92CA8049322F0E8FD50B9012EE9
:104D600010D002242CA82C9522F082FA204653B0B1
:104D7000BDE8F083024640F25B61534822F002F83E
:104D8000012EEED1002305A92CA8059322F0C0FD29
:104D900000286BD1002306A92CA8069322F0B8FDA9
:104DA00000285CD10BA81DF079FA0BA92CA822F0E1
:104DB000EBFE00284CD10BA8444E22F069FF07A857
:104DC00022F046FA002307A90BA807968DF8203099
:104DD00022F0D4FEF8B104F51874204621F0E2FD6B
:104DE00000284AD107A8079622F038FA0BA8002419
:104DF0001DF03CFAB6E70324B4E7024640F24461F2
:104E0000314821F0BFFF94E7024640F24E612E4840
:104E100021F0B8FF98E70BA822F094FF0028DAD120
:104E2000059909A8069A236801911F6A009222F049
:104E30000FFA9DF82030204609968DF8283009ABEE
:104E4000DDE90021B84709A8099622F007FAC9E769
:104E5000024640F277611C4821F094FFABE702461E
:104E600040F26F61184821F08DFF9BE7024640F247
:104E70006761154821F086FF8CE709AFDFF85080A5
:104E8000DDE905923846009222F0E2F9032320463C
:104E9000C7F800803B7121F085FD009A50B1204693
:104EA00049463B461DF0BCFE3846C7F8008022F05C
:104EB000D5F997E740F27E31034821F005FF009ACB
:104EC000EDE700BFB8740020E4540020F461002036
:104ED000105C0020034B10B50446036000F0DCF8C2
:104EE000204610BDD8730020054B10B50446036062
:104EF00000F0D2F8204623F0E7FF204610BD00BFA7
:104F0000D873002010B5044600F070F8034A4FF043
:104F1000FF3320462260C4F82C3110BDD873002026
:104F200000F076B810B590F82C01144623F0E8FE96
:104F300001462046A1F10101B1FA81F1BDE810401E
:104F4000490923F0DDB900BF117990F82C01A1F1D6
:104F50000101B1FA81F1490923F0A8BE70B50D46EF
:104F60000446164670B1002D04DD2A46B5210848D6
:104F700021F008FF2368324629462046DB68BDE859
:104F8000704018479821024821F09EFEEBE700BFD1
:104F90004452002070B50D460446164670B1002DEF
:104FA00004DD2A46C421084821F0ECFE236832467D
:104FB000294620461B69BDE870401847A4210248D5
:104FC00021F082FEEBE700BF4452002038B50D1EF1
:104FD000044604DD2A462321034821F0D3FE68233A
:104FE00003FB0540C43038BD4452002010B50446D0
:104FF00020F0BCFE054B204640F85C3B00F09EF9DB
:1050000004F1C40000F042FA204610BD2C740020C8
:10501000F0B50446A3B020F0B7FE002704F15C060B
:1050200004F1C405304600F0AFF9174A2146304676
:1050300000F090F9231D39463046039321F0EAFB36
:10504000039B7821114A04A800972BF03FFC04A988
:10505000304621F01BFD284600F0C0FA21460C4ADC
:10506000284600F01FFA3946284621F0D3FB039B5F
:10507000084A782104A800972BF028FC04A92846A8
:1050800021F004FD23B0F0BDED2F0000C45200203C
:1050900025300000E052002010B5094B044640F8CE
:1050A000C43BD4F8C4305B689847E36D04F15C00FE
:1050B0005B689847204620F041FE204610BD00BFA7
:1050C0002C74002010B5074A0446074B00F5947075
:1050D0002260C4F8283122F0C1F8204600F084F89C
:1050E000204610BD18740020A073002010B5094A96
:1050F0000446094B00F594702260C4F8283122F070
:10510000ADF8204600F070F8204623F0DDFE204682
:1051100010BD00BF18740020A073002010B5044615
:1051200000F082F8064A4FF0FF3304F59470C4F89B
:10513000243122601AF01AFB024B20461C6010BD7D
:10514000187400209893002000F080B8C0F8241153
:10515000704700BF10B584B0044601A81AF006FBE2
:1051600001A81AF019FB62B601A904F594701AF0AF
:105170000BFB034B01A8019322F070F804B010BDA3
:10518000A073002010B5044623F0A8FC204610BDF3
:10519000014B1868FFF7DEBF989300204FF47A7335
:1051A000D0F82421074902FB03F3013B8B4200D3D3
:1051B000704745F6C0530449044803FB02F2013A24
:1051C00023F028BCAAAAAA0A21320000FC7D0020F4
:1051D000024A0349034829F0E9BA00BF0C7E0020C7
:1051E00015320000FC7D002010B5094B044640F844
:1051F000C03BD4F8C0305B689847E36D04F15C00B5
:105200005B689847204620F099FD204610BD00BFFE
:105210006C74002010B50446FFF7E6FF204623F02B
:1052200053FE204610BD00BF10B5044620F09EFD81
:10523000054B204640F85C3B1AF080FB04F1C000AF
:1052400000F072F9204610BD6C74002070B5044661
:10525000A2B020F099FD002504F15C0630461AF05A
:10526000C9FB231D0D4AC034782104A8009503937F
:105270002BF02CFB04A9304621F008FC204600F05E
:10528000AFF9039B064A782104A800952BF01EFB7A
:1052900004A9204621F0FAFB22B070BD245400205E
:1052A0004054002070B5044682B00D4621F080FBCA
:1052B000E36DDBB1636E03B36846124E21F0C8FFA5
:1052C00000232846694600968DF8043022F056FCEB
:1052D000054620B9636E6A46D4E9170198476846C7
:1052E000009621F0BBFF284602B070BD632106483E
:1052F00021F0EAFC636E002BDED16421024821F02C
:10530000E3FCD9E7486200208C140020034B10B561
:105310000446036021F074FA204610BDA065002009
:10532000054B10B50446036021F06AFA204623F0CD
:10533000CBFD204610BD00BFA065002010B504467F
:1053400021F04EFA024A002320462260636610BD17
:10535000A065002070B504460D46164621B14EB139
:10536000E5656666656570BD4321064821F0ACFCC5
:10537000002EF5D14421034821F0A6FCE5656666C0
:10538000656570BD8C14002021F054BA042070476C
:105390000C30704770B5044682B00D4621F008FB12
:1053A000E36DDBB1636E03B36846124E21F050FF2C
:1053B00000232846694600968DF8043022F0DEFB73
:1053C000054620B9636E6A46D4E9170198476846D6
:1053D000009621F043FF284602B070BD63210648C5
:1053E00021F072FC636E002BDED16421024821F0B3
:1053F0006BFCD9E74862002008150020034B10B56C
:105400000446036021F034FF204610BDF064002004
:10541000054B10B50446036021F02AFF204623F017
:1054200053FD204610BD00BFF0640020034B10B5B3
:105430000446036021F000FA204610BDF465002008
:10544000054B10B50446036021F0F6F9204623F021
:105450003BFD204610BD00BFF4650020034B10B596
:105460000446036021F0CCF9204610BDBC65002045
:10547000054B10B50446036021F0C2F9204623F025
:1054800023FD204610BD00BFBC65002010B50446BA
:1054900021F0A6F9024A002320462260636610BD6F
:1054A000BC65002070B504460D46164621B14EB1CC
:1054B000E5656666656570BD4321064821F004FC1C
:1054C000002EF5D14421034821F0FEFBE565666618
:1054D000656570BD0815002010B5044682B00191C5
:1054E00021F066FAE36D019A3BB1636E6BB1D4E9CA
:1054F000170102B0BDE8104018475221094821F0B9
:10550000E3FB636E019A002BF1D153210548019210
:1055100021F0DAFB636E019AD4E9170102B0BDE80D
:10552000104018470815002010B5044621F0D4F9A2
:10553000024A002320462260236610BDF465002045
:1055400038B504460D4621B1002325666565E3653F
:1055500038BD8821014821F0B7FBF5E70815002088
:1055600070B5044684B00D4621F022FA206E28B1B1
:10557000294604B0BDE87040FFF7AEBFE36D0BB342
:10558000144E684621F06CFE29466846009622F0CB
:10559000DFF858B9E06D694603681B69984758B948
:1055A0006846009621F064FE04B070BD0246A42156
:1055B000094821F0E7FBEDE70246A721064821F064
:1055C000E1FBEDE79A21044821F07EFB206E0028E4
:1055D000D6D0CDE7F06400200815002021F02AB9CC
:1055E00021F086B9704700BF034B10B50446036035
:1055F00000F0B6F9204610BD60650020054B10B5DF
:105600000446036000F0ACF9204623F05DFC204620
:1056100010BD00BF60650020002100F0DDB900BFB3
:10562000002100F009BA00BF10B5044600F09EF852
:10563000034A002320462260C4F8583410BD00BF3E
:105640006065002000F0BCB8036800215B6B184760
:1056500010B58AB0044603A81AF088F803A81AF017
:105660009BF803AA2046002100F0CEF9D4F8581484
:1056700006A8019120F086FE06AA0199204600F0B6
:1056800085FB06A820F026FED4F85834044A03A867
:1056900001330392C4F8583421F0E0FD0AB010BD84
:1056A000A07300204FF48570704700BF0C30704726
:1056B000704700BF704700BF034B10B5044603603E
:1056C00021F0D6FD204610BD44650020054B10B5E5
:1056D0000446036021F0CCFD204623F0F5FB204674
:1056E00010BD00BF4465002070B50D1E044616466F
:1056F00004DD2A468221064821F044FB642331461A
:1057000003FB0540BDE8704000F532701AF022B985
:105710009817002070B50D1E0446164604DD2A4673
:105720009621064821F02EFB6423314603FB0540F9
:10573000BDE8704000F5647020F0AABF9817002003
:1057400070B50D1E0446164604DD2A46A021064803
:1057500021F018FB6423314603FB0540BDE870408F
:1057600000F57D701FF04EBB9817002010B5044661
:105770001FF0ECFC114B04F59670236000F07CFCEC
:1057800004F5CA7020F07EFB04F5FE701EF09EFF4B
:1057900004F5197000F0BEFC04F532701AF0CEF872
:1057A00004F54B7020F0BCFB04F5647020F064FF3E
:1057B00004F57D701FF01AFB204610BD5C660020CA
:1057C0002DE9F0470446A0B08946114604F59677C6
:1057D00000251FF0C9FC261D384604F5CA7800F0E4
:1057E000E3FC534A3846214600F052FC384629462D
:1057F00004F5197A21F00EF833464E4A782102A8B2
:1058000000952BF063F802A9384604F5FE7721F0E5
:105810003DF9404620F0CEFB474A4046214620F065
:105820003DFB4046294620F0F5FF3346434A7821A8
:1058300002A800952BF04AF802A9404604F53278F8
:1058400021F024F938461EF0E9FF3D4A384621464A
:105850001EF048FF3846294620F0DCFF3346394A1F
:10586000782102A800952BF031F802A9384604F5FA
:105870004B7721F00BF9504600F0C4FC3346324A16
:10588000782102A800952BF021F802A9504621F0BA
:10589000FDF840461AF0AEF833462C4A782102A8AB
:1058A00000952BF013F802A9404604F5647821F026
:1058B000EDF8384620F080FB3346254A782102A8CF
:1058C00000952BF003F802A9384604F57D7721F006
:1058D000DDF8404620F058FF33461E4A782102A8E2
:1058E00000952AF0F3FF02A9404621F0CFF8384690
:1058F0001FF03EFB184A3346782102A800952AF093
:10590000E5FF02A9384621F0C1F84FF485724946F7
:1059100020461FF071FB10B920B0BDE8F0870246A9
:105920004FF4DD710D4820B0BDE8F04721F02ABAF0
:10593000CD3B000018180020D93C0000341800208E
:10594000E53D000050180020681800202454002075
:1059500088180020A4180020BC18002098170020E8
:1059600010B51C4A0446D0F8F43300F57D7022606F
:105970005B689847D4F8903304F564705B68984787
:10598000D4F82C3304F54B705B689847D4F8C832D0
:1059900004F532705B689847D4F8643204F51970E6
:1059A0005B689847D4F8FC3104F5FE705B68984753
:1059B000D4F8943104F5CA705B689847D4F82C3158
:1059C00004F596705B68984720461FF0F7FB204669
:1059D00010BD00BF5C66002070B50D1E0446164663
:1059E00005DD2A464FF4E871064821F0CBF964231F
:1059F000314603FB0540BDE8704000F5197000F02A
:105A000095BB00BF9817002070B50D1E04461646C2
:105A100005DD2A464FF4ED71064821F0B3F9642301
:105A2000314603FB0540BDE8704000F5327019F0C7
:105A3000A1BF00BF9817002070B50D1E0446164682
:105A400005DD2A464FF4F271064821F09BF96423E4
:105A5000314603FB0540BDE8704000F54B7020F077
:105A60006BBA00BF98170020F0B50C1EC7B00546F2
:105A7000174605DD224640F2DF212D4821F082F94C
:105A80002B682C4A9B6A93424CD168462A4E21F0DF
:105A9000E7FB01216846009621F0D2FCB8B9214607
:105AA000684621F0CDFCF0B93946684621F056FE33
:105AB00028BB0123002205F15C0069461FF0F4FBBE
:105AC00020BB6846009621F0D3FB47B0F0BD0246EC
:105AD00040F2ED21164821F055F92146684621F0A3
:105AE000AFFC0028E0D0024640F2F321104821F03C
:105AF00049F93946684621F031FE0028D9D00246DE
:105B000040F2FA210A4821F03DF9D2E7024640F27C
:105B10000531074821F036F96846009621F0A8FBC8
:105B200047B0F0BD3A46214628469847ADE700BF4A
:105B300098170020413700004465002030B50D461D
:105B400083B0044630B12946204603B0BDE830405A
:105B5000FFF78ABF40F2B6210548019221F0B4F860
:105B6000019A2946204603B0BDE83040FFF77CBFCC
:105B700098170020F0B50C1EC7B00546174605DD86
:105B800022464FF445712D4821F0FCF82B682C4A31
:105B9000DB6A93424CD168462A4E21F061FB022118
:105BA0006846009621F04CFCB8B92146684621F0C1
:105BB00047FCF0B93946684621F0E0FB28BB0123D9
:105BC000002205F15C0069461FF06EFB20BB6846B1
:105BD000009621F04DFB47B0F0BD024640F2223165
:105BE000164821F0CFF82146684621F029FC00280C
:105BF000E0D002464FF44A71104821F0C3F839460C
:105C0000684621F0BBFB0028D9D0024640F22F3174
:105C10000A4821F0B7F8D2E7024640F23A31074885
:105C200021F0B0F86846009621F022FB47B0F0BDA5
:105C30003A46214628469847ADE700BF981700200E
:105C4000453700004465002030B50D4683B004465A
:105C500030B12946204603B0BDE83040FFF78ABF87
:105C600040F2C2210548019221F02EF8019A2946FE
:105C7000204603B0BDE83040FFF77CBF98170020F6
:105C8000F0B50C1EC7B00546174605DD224640F2AA
:105C900049312D4821F076F82B682C4A1B6B934232
:105CA0004CD168462A4E21F0DBFA03216846009663
:105CB00021F0C6FBB8B92146684621F0C1FBF0B916
:105CC0003946684621F05AFB28BB0123002205F122
:105CD0005C0069461FF0E8FA20BB6846009621F098
:105CE000C7FA47B0F0BD024640F25731164821F0DE
:105CF00049F82146684621F0A3FB0028E0D002467F
:105D000040F25D31104821F03DF83946684621F0F7
:105D100035FB0028D9D002464FF459710A4821F0CA
:105D200031F8D2E7024640F26F31074821F02AF8F5
:105D30006846009621F09CFA47B0F0BD3A462146ED
:105D400028469847ADE700BF981700204537000068
:105D50004465002030B50D4683B0044630B1294675
:105D6000204603B0BDE83040FFF78ABF40F2CE21A5
:105D70000548019220F0A8FF019A2946204603B069
:105D8000BDE83040FFF77CBF981700202DE9F041B7
:105D900000F57D77A2B004460E463846154620F041
:105DA00001FE10B922B0BDE8F08104F564784046E8
:105DB00020F0F8FDB0B901A81EF050FD314601A851
:105DC00021F0DCFAC8B920461FF0E8FF01AB01461C
:105DD0002A4638461FF026F801A81EF027FD22B0FB
:105DE000BDE8F0810849284620F012FB0028E2D0E7
:105DF0004046294620F05CFCDDE7024640F25F2188
:105E0000024820F0BFFFDEE77893002098170020BB
:105E100070B5ADF50C7D04465A4E46A821F020FA27
:105E200000236A4646A904F15C00469600931FF0E1
:105E300053FA002832D146A821F02AFF002301A9F5
:105E400046A8019321F072FD08BB9DF80450ADB146
:105E5000002302A946A8029321F068FD38B9013D4C
:105E6000032D00F28C80DFE805F03348562002460F
:105E70004FF46E71444820F085FFF0E7032446A8F4
:105E8000469621F0F5F920460DF50C7D70BD0246D1
:105E900040F2AB313C4820F075FFD6E7024640F2B5
:105EA000A131394820F06EFFC5E703AD46A8294669
:105EB00021F02EFD00283CD146A821F043FF002808
:105EC00053D123682046296800245B6B9847D6E7A6
:105ED00003AD284600F078F8294646A821F054FE84
:105EE00000283BD12368204602992A46DB6900241A
:105EF0009847284600F050F8C1E703AD46A8294668
:105F000021F006FD18BB236820462A680024029968
:105F10001B6A9847B3E703AD46A8294621F0F8FC71
:105F200070B9236820462A68002402995B6A984762
:105F3000A5E7024640F20541134820F023FFBBE7E6
:105F4000024640F2EF31104820F01CFFE9E702461C
:105F500040F2DA310C4820F015FFD4E7024640F257
:105F6000C531094820F00EFFBCE746A821F0EAFE43
:105F700040F20C410246044820F004FFA1E702244D
:105F80007DE700BF44650020981700204FF4807023
:105F9000704700BF0C307047034B10B504460360D8
:105FA00021F066F9204610BD80640020054B10B535
:105FB0000446036021F05CF9204622F085FF20466C
:105FC00010BD00BF8064002010B5044621F048F9E0
:105FD000014B2046236010BD806400204FF4817087
:105FE000704700BF0C307047034B10B50446036088
:105FF00021F03EF9204610BD0C650020054B10B580
:106000000446036021F034F9204622F05DFF20466B
:1060100010BD00BF0C650020034B10B504460360A3
:1060200020F00AFC204610BD0C660020054B10B580
:106030000446036020F000FC204622F045FF204685
:1060400010BD00BF0C660020034B10B50446036072
:1060500020F0D6FB204610BDD8650020054B10B5BA
:106060000446036020F0CCFB204622F02DFF2046A2
:1060700010BD00BFD865002010B5044620F0B0FB6D
:10608000024A002320462260636610BDD8650020C6
:1060900070B504460D46164621B14EB1E5656666FB
:1060A000656570BD4321064820F00EFE002EF5D137
:1060B0004421034820F008FEE5656666656570BD0D
:1060C0008815002010B5044682B0019120F070FCC4
:1060D000E36D019A3BB1636E6BB1D4E9170102B075
:1060E000BDE8104018475221094820F0EDFD636ECD
:1060F000019A002BF1D153210548019220F0E4FDD3
:10610000636E019AD4E9170102B0BDE81040184748
:106110008815002010B5044620F0DEFB024A00235B
:1061200020462260236610BD0C66002070B5044630
:10613000C4B00D4620F03CFC206E28B1294644B086
:10614000BDE87040FFF7BEBFE36D0BB3144E684669
:1061500021F086F829466846009621F0FFFA58B9E2
:10616000E06D694603681B69984758B96846009610
:1061700021F07EF844B070BD0246A421094820F009
:1061800001FEEDE70246A721064820F0FBFDEDE702
:106190009A21044820F098FD206E0028D6D0CDE743
:1061A0000C6500208815002020F044BB30B5044663
:1061B000C5B00D4620F0FCFBE36DABB1636ED3B10F
:1061C00001A8FFF701FF284601A921F0DDFC0546E3
:1061D00020B9636E01AAD4E91701984701A8FFF717
:1061E000DBFE284645B030BD6321054820F06CFD3C
:1061F000636E002BE4D16421014820F065FDDFE7E8
:106200008815002020F074BB2DE9F04782B00746C6
:106210009A461546DDF82880DDF82C905AB398F898
:106220000460731E062B52D8DFE803F0082F0434F5
:10623000393E2A0097F89035012B19D0013E07F21C
:10624000DC6107F5E86C18BF012651F8044FAC4239
:1062500000D16EB98C45F8D143465246294638469E
:10626000CDF8009001F068F898F80430012B20D0A8
:1062700002B0BDE8F0873521194820F025FDCEE7B2
:1062800097F8B035012BD9D1F2E797F88835012B73
:10629000D4D1EDE797F89835012BCFD1E8E797F8FF
:1062A000A035012BCAD1E3E797F8A835012BC5D15A
:1062B000DEE70021384600F0E9FD0028D8D02A4664
:1062C0000021384602B0BDE8F04700F095BD3246E7
:1062D0005921034802B0BDE8F04720F053BD00BF8C
:1062E0005C1D002070B50446187984B00D4604EB9F
:1062F000C0000D4E089900F28450019200F008FA97
:1063000002A820F0A5FF00232046019A29468DF817
:106310000C3002AB029600F0E5FD02A8029620F0D8
:106320009DFF04B070BD00BF105C00202DE9F0435C
:1063300083B006460F4690460A9C25791C4625BB2D
:1063400000F2DC6100F5E8628C4601E0944548D03B
:106350005CF8043FA342F9D16846414D20F078FF34
:106360000023304642468DF8043039466B4600958E
:1063700000F0B8FD6846009520F070FF21463046D9
:1063800003B0BDE8F04301F0F3B800F2DC634FF076
:10639000000C04E00CF1010CBCF1190F41D053F8D2
:1063A000045FA542F6D10CF5DC7C4FF000092C4DC2
:1063B000684646F82C9020F04BFF394642466B4623
:1063C00030468DF80490009500F08CFD68460095ED
:1063D00020F044FF2146304603B0BDE8F04301F011
:1063E000E7B9002302E00133192B33D051F8045FE1
:1063F000002DF8D103F5DC73DFF86490684646F8A9
:10640000234020F025FF3046424639466B468DF842
:106410000450CDF8009000F065FD6846CDF800907E
:10642000AAE72146304601F053FA68460C4C20F0AA
:106430000FFF04233046424639468DF804306B4640
:10644000009400F04FFD6846009420F007FF03B071
:10645000BDE8F0832146304601F01AF9E5E700BFB8
:10646000105C00202DE9F043002485B006460F465D
:106470009046254D00F5B169684620F0E9FE02A876
:106480008DF80440009520F0E3FE19F8342002A9AD
:106490009DF804303046B2FA82F201348DF80C30A7
:1064A0005209029501F0A4FA02A8029520F0D6FE46
:1064B0006846009520F0D2FE062CDDD106F2DC64A1
:1064C00006F5E86501E0AC4208D054F8041F002945
:1064D000F9D0304601F04CF8AC42F6D102A80B4C92
:1064E00020F0B6FE00233046424639468DF80C3087
:1064F00002AB029400F0F6FC02A8029420F0AEFE7B
:1065000005B0BDE8F08300BF54710020105C00208E
:10651000002100F0A3BC00BF2DE9F8430546DFF8D9
:10652000888000F0DFFA002605F284591D4B05F241
:10653000B4574C462B602046083420F089FEBC42FC
:1065400044F8088C04F8046CF5D120461CF00AFCD1
:1065500005F254601FF078FD0021484600F0DCF899
:10656000002105F28C5000F0D7F8002105F294507C
:1065700000F0D2F8002105F29C5000F0CDF8002187
:1065800005F2A45000F0C8F8012105F2AC5000F06B
:10659000C3F86422002105F5DC6028F059F828468C
:1065A000BDE8F883FC6A0020EC6B002000F0D0BA54
:1065B000F8B505460C4B00F2B45400F254602B6061
:1065C00005F284561FF028FD2046084F1CF0EAFB18
:1065D00044F8087D204620F041FEB442F8D1284618
:1065E00000F0BCFB2846F8BDFC6A0020EC6B0020E4
:1065F000F8B505460E4B00F2B45400F254602B601F
:1066000005F284561FF008FD20460A4F1CF0CAFB15
:1066100044F8087D204620F021FEB442F8D12846F7
:1066200000F09CFB284622F04FFC2846F8BD00BF36
:10663000FC6A0020EC6B00202DE9F04100F2B4551B
:10664000164600F25467DDF81880044628461CF010
:106650009FFB314628461CF0A1FB414628461CF012
:1066600099FB384621F010FB394628461CF0C2FB46
:1066700030B90021204600F01FFC60B9BDE8F08170
:1066800002467A21084820F07DFB0021204600F0D8
:1066900013FC0028F2D000233A4620461946BDE8F4
:1066A000F04100F0C1BB00BF5C1D00200B4601792A
:1066B000184620F0C5BE00BF10B50A4682B0044699
:1066C00001A9104621F032F938B99DF80420012AB9
:1066D000227194BF00230123980002B010BD00BFB7
:1066E000034B10B50446036020F0B8FD204610BDF2
:1066F000EC6B0020054B10B50446036020F0AEFDA6
:10670000204622F0E1FB204610BD00BFEC6B0020CC
:106710000B790371704700BF0171704730B5C3B08A
:1067200004460D4601A820F08DFC23799BB1012B76
:1067300016D00E4901A820F091FC01A820F050FCD1
:10674000237902460A49284621F00AFC01A820F0D4
:106750004DFC43B030BD074901A820F07FFCECE7B9
:10676000054901A820F07AFCE7E700BF605A002045
:106770006C5A00204C5A0020545A00200B460179D4
:10678000184620F05DBE00BF10B50A4682B0044630
:1067900001A9104621F0CAF838B99DF80420052A4D
:1067A000227194BF00230123980002B010BD00BFE6
:1067B000034B10B50446036020F050FD204610BD89
:1067C00054710020054B10B50446036020F046FDCF
:1067D000204622F079FB204610BD00BF54710020F6
:1067E00030B5C3B004460D4601A820F02BFC237938
:1067F000052B2FD8DFE803F0151A1F2429031849A9
:1068000001A820F02BFC01A820F0EAFB2379024626
:106810001449284621F0A4FB01A820F0E7FB43B06F
:1068200030BD114901A820F019FCECE70F4901A87F
:1068300020F014FCE7E70E4901A820F00FFCE2E786
:106840000C4901A820F00AFCDDE70B4901A820F063
:1068500005FCD8E7094901A820F000FCD3E700BFF8
:10686000685B00206C5A0020305B00203C5B0020FD
:10687000485B0020505B00205C5B0020605A0020D9
:10688000952070470C307047704700BF704700BFBD
:10689000034B10B50446036020F0EAFC204610BD0F
:1068A0009C680020054B10B50446036020F0E0FC16
:1068B000204622F009FB204610BD00BF9C68002046
:1068C0002DE9F04182B00D4616460446089FDDF8DA
:1068D0002480A8B1002D07DD2A4640F297610C48BC
:1068E000019320F04FFA019B294620463246CDE91C
:1068F00008782568EC69A44602B0BDE8F04160471D
:1069000040F27A610248019320F0DEF9019BE1E751
:106910000C2E002038B50D1E044604DD2A465E21EB
:10692000044820F02FFA682303FB054000F5967019
:1069300038BD00BF0C2E002038B50D1E044604DD06
:106940002A466521044820F01DFA682303FB054010
:1069500000F5CA7038BD00BF0C2E002070B50D1EAA
:106960000446164604DD2A467A21064820F00AFA33
:106970006423314603FB0540BDE8704000F5197003
:106980001BF07EBF0C2E002070B50D1E044616466F
:1069900004DD2A468421064820F0F4F964233146B8
:1069A00003FB0540BDE8704000F532701CF028B9CB
:1069B0000C2E002070B50D1E0446164604DD2A4636
:1069C0008E21064820F0DEF96423314603FB0540A2
:1069D000BDE8704000F54B700EF006B80C2E00209C
:1069E00070B50D1E0446164604DD2A469821064859
:1069F00020F0C8F96423314603FB0540BDE8704030
:106A000000F564701CF018BC0C2E002070B50D1E33
:106A10000446164604DD2A46A321064820F0B2F9B2
:106A20006423314603FB0540BDE8704000F57D70EE
:106A30001CF014BE0C2E002070B50D1E0446164628
:106A400004DD2A46AE21064820F09CF96423314635
:106A500003FB0540BDE8704000F58B601FF0A2BB52
:106A60000C2E002070B50D1E0446164604DD2A4685
:106A7000B821064820F086F96423314603FB05401F
:106A8000BDE8704000F2BC401FF002BE0C2E00209A
:106A900038B500F51975044628461FF083FFC0B1CC
:106AA00020461FF07BF9014628461BF0F9FE2046E0
:106AB0001FF074F90146284602311BF0F1FE204612
:106AC0001FF06CF9014628460331BDE838401BF041
:106AD000E7BE40F22711024820F0F6F8E0E700BFD9
:106AE0000C2E002010B504461EF030FB174B04F5A9
:106AF000967023601BF0EEFC04F5CA701CF042FB9C
:106B000004F5FE701FF0BEF904F519701BF0ACFE21
:106B100004F532701CF068F804F54B700DF058FF66
:106B200004F564701CF07CFB04F57D701CF08AFD9C
:106B300004F58B601FF02AFB04F2BC401FF09CFDA3
:106B400004F5A4601FF0ECF9204610BD506E002043
:106B50002DE9F0430446A1B08946114604F5967725
:106B600000251EF001FB261D384604F5CA781BF0EF
:106B700077FD6B4A384621461BF0B8FC384629465B
:106B80001FF048FE3346674A782102A8009529F095
:106B90009DFE02A9384604F5FE771FF077FF4046B8
:106BA0001CF0C8FB604A404621461CF0F7FA4046FC
:106BB00029461FF02FFE33465C4A782102A8009533
:106BC00029F084FE02A9404604F519781FF05EFF03
:106BD00038461FF0EFF9564A384621461FF05EF955
:106BE000384629461FF016FE3346524A782102A83D
:106BF000009529F06BFE02A9384604F532771FF0A4
:106C000045FF40461BF08CFE33464B4A782102A8D4
:106C1000009529F05BFE02A9404604F54B781FF071
:106C200035FF38461CF05CF83346444A782102A808
:106C3000009529F04BFE02A9384604F564771FF051
:106C400025FF40460DF020FF33463D4A782102A83B
