:0200000460009A
:100000004643464200000156000000000103030081
:1000100000000000000000000000000000000000E0
:1000200000000000000000000000000000000000D0
:1000300000000000000000000000000000000000C0
:1000400000000000010408000000000000000000A3
:100050000000800000000000000000000000000020
:100060000000000000000000000000000000000090
:100070000000000000000000000000000000000080
:10008000EB04180A063204260000000000000000FD
:10009000050404240000000000000000000000002F
:1000A0000000000000000000000000000000000050
:1000B0000604000000000000000000000000000036
:1000C0000000000000000000000000000000000030
:1000D00020041808000000000000000000000000DC
:1000E0000000000000000000000000000000000010
:1000F0000000000000000000000000000000000000
:10010000D8041808000000000000000000000000F3
:100110000204180804200000000000000000000095
:1001200000000000000000000000000000000000CF
:10013000600400000000000000000000000000005B
:1001400000000000000000000000000000000000AF
:10015000000000000000000000000000000000009F
:10016000000000000000000000000000000000008F
:10017000000000000000000000000000000000007F
:10018000000000000000000000000000000000006F
:10019000000000000000000000000000000000005F
:1001A000000000000000000000000000000000004F
:1001B000000000000000000000000000000000003F
:1001C000000100000010000001000000000000001D
:1001D000000001000000000000000000000000001E
:1001E000000000000000000000000000000000000F
:1001F00000000000000000000000000000000000FF
:10020000FFFFFFFFFFFFFFFFFFFFFFFFFFFFFFFFFE
:10021000FFFFFFFFFFFFFFFFFFFFFFFFFFFFFFFFEE
:10100000D100204325160060000000000000000011
:10101000201000600010006000CC036000000000A1
:101020000000006000D8030000000000FFFFFFFF89
:10103000FFFFFFFFFFFFFFFFFFFFFFFFFFFFFFFFC0
:10104000FFFFFFFFFFFFFFFFFFFFFFFFFFFFFFFFB0
:10105000FFFFFFFFFFFFFFFFFFFFFFFFFFFFFFFFA0
:10106000FFFFFFFFFFFFFFFFFFFFFFFFFFFFFFFF90
:10140000884207D0904205D251F8043B40F8043B93
:101410008242F9D8704700BF884204D2002340F8C6
:10142000043B8142FBD870472DE9884800F012F94F
:101430000824614B614AC3F8544161496148FFF790
:10144000DFFF614A61496248FFF7DAFF614962489C
:10145000FFF7E2FF614C4FF0E0214FF470000023F2
:101460005F4AC1F8880D44F823200133B02BFAD12C
:101470005C4B80215C4A03F8011B9342FBD14FF087
:10148000E0254D4E4FF08039DFF88CB1DFF88CA1AC
:101490004FF0FF31C5F8084D0027C6F80491C6F893
:1014A00000B1C6F8F490C6F8F0A0D5F8243DDFF8F6
:1014B000708143F4E0234D4AC5F8243DD8F81C3030
:1014C00023F07F0343F04003C8F81C30D8F82430E1
:1014D00023F07F0343F04003C8F824309166D166BF
:1014E0001167516700F0BEF8414B4249A363424B7C
:1014F000E36363236B610323AF612B613F4BC5F84B
:10150000203DD5F8FC3D43F08073C5F8FC3D3C4BD5
:101510001A6842F001021A605B680B6000F0E0FAA2
:10152000C6F804913748C6F800B1C6F8F490C6F87A
:10153000F0A000F075FCD8F86C10334B334A41F43E
:101540004051C8F86C101F60C3F80871C3F81871D7
:10155000C3F82871C3F83871936BDB0708D442F6DF
:1015600015632B4951651365936B43F00103936336
:10157000264A284C936843F00113936000F0EEF87C
:1015800000F012FC00F054FC00F0D8FA00F064F80F
:101590002368132BFCD900F069FB2368B3F5967F11
:1015A000FBD300F05DF800F059F800F031FC00F0DA
:1015B00033FC30BFFDE700BF00800D40B0190300D1
:1015C000701F006000000000C092002024390360FA
:1015D00000000020208C0120C092002000900020FC
:1015E0008970020000E400E0A0E400E000C00A40CE
:1015F000A5840200B48B0120A984020000002020F1
:10160000001000E00046C3230040084000400D40A9
:101610000000C056B88B01201B1018200C0D1113B0
:1016200000C00F40074B4FF42A01074A07485A648D
:101630001864074A99639546BFF34F8FBFF36F8FC6
:10164000FFF7F2FE00C00A40FFBFAAAA0700200071
:1016500000800420704700BF704700BF704700BF84
:1016600000BF704710B44FF0E023002110242B4836
:10167000C3F8941DC3F89C4D1124C3F8A00D28484D
:10168000C3F89C4D1224C3F8A00D2648C3F89C4D06
:10169000254AC3F8A00D254C42F015022448C3F892
:1016A0009C4DC3F8A00D234C2348C3F89C4DC3F8B0
:1016B000A00D224CC3F89C2D2148224AC3F8A04D0E
:1016C000C3F89C0DC3F8A02D02F5A0221E4C0C32CD
:1016D0001E48C3F89C4DC3F8A02D1D4AC3F89C0DAD
:1016E0001C4CC3F8A02D01221B48C3F89C4DC3F825
:1016F000A00DC3F8942DBFF34F8FBFF36F8FC3F8C6
:10170000501FBFF34F8FBFF36F8FD3F8142D5DF8C9
:10171000044B42F44032C3F8142D70473F000010D0
:101720002500080309001000208C01201300200070
:1017300021000207140000202500081309000010F2
:101740001600202027000B1317000040180000602F
:101750002F000B07190000702F000B13F0B5B84BCA
:101760001822B84E0120B84F83B0C3F85C62B74965
:10177000C3F86072B64DC3F86462A6F53046B54C46
:10178000C3F86862C3F86C52C3F87052C3F874525D
:10179000C3F8785248F20C75DA661A675A679A6786
:1017A000DA67C3F88020C3F88420C3F88820C1F822
:1017B0002C03A94AC1F83003C1F83403C1F8380337
:1017C000C1F83C03C1F85003A169A44B0A40A448E6
:1017D000A4491343A44AA361D4F8843043F00C0312
:1017E000C4F884304FF0FF34036843F00203036011
:1017F00003682B404FF400551A439C4B0260446031
:101800008A689B4C13409B4A43F000538360C36833
:1018100023F07803C360036A134023430362036A1F
:101820001340954A2343954C43628262C262002270
:10183000D1F8B83023F03F0343F00103C0F8B830CB
:10184000D1F8BC308E4923F03F0343F00103C0F8C8
:10185000BC3040F20563026105660467C0F8803061
:10186000456644670224C0F88430036823F002030D
:1018700003608161834B8449C46143F8042B8B422C
:10188000FBD1774A136843F001031360136813F028
:101890000103FBD17A48022140F2F564906140F2E5
:1018A0009940D16140F26641C2F8004242F20144DF
:1018B000C2F810127549C2F82002C2F8301240F284
:1018C00035417348C2F83442C2F84012714CC2F834
:1018D000500242F201207049C2F854120121C2F8AC
:1018E0006042C2F864025E48C2F8A030C2F8A43078
:1018F000C2F8B0104369DA07FCD5012300244FF485
:10190000803257494361C0F8A040C0F8A420C0F815
:10191000B0304B69DB07FCD5012300244FF40030C5
:101920004F4A4B61C1F8A040C1F8A400C1F8B030E3
:101930005369DF07FCD50123002458484849536107
:10194000C2F8A040C2F8A400C2F8B0304B69DE076C
:10195000FCD5D1F8003145F60D5221209BB24861EB
:10196000934265D100244FF4802201233C48C1F802
:10197000A040C1F8A420C1F8B0304369DD07FCD510
:1019800001234FF400040021354A4361C0F8A04010
:10199000C0F8A410C0F8B0305369DC07FCD50123AF
:1019A0004FF400044FF480302D495361C2F8A04039
:1019B000C2F8A400C2F8B0304B69D807FCD50123A7
:1019C0004FF400044FF40030254A4B61C1F8A040A9
:1019D000C1F8A400C1F8B0305369D907FCD5012380
:1019E0004FF400042D481E495361C2F8A040C2F8CC
:1019F000A400C2F8B0304B69DA07FCD5D1F8003149
:101A000045F60D5221209BB24861934250D00825E3
:101A10004FF4000422490020224B234A0090157005
:101A20005A1A01232148224400F0EEF903B0F0BD18
:101A30001E4B0022C3E90022C3E9022203B0F0BD1D
:101A400000801F40F9B00100F910010000841F4020
:101A5000F970010000C00F40FFFCFF1F000300A051
:101A600000402A4000802A401200FFFFFF37F700A5
:101A70004000008000FFF07CFF000F836300020045
:101A8000F05AF05A00422A4000432A409F0418307E
:101A9000EB06180A3806180A06320126040003006D
:101AA0000000007000000070DF8B0120F08A012030
:101AB0004FF400044FF4802201230848C1F8A040ED
:101AC000C1F8A420C1F8B0304369DB07FCD501237D
:101AD00010254FF0807443619CE700BF00402A400E
:101AE000F0B4154A40274FF480314FF480564FF43C
:101AF00000554FF4404443F24200136913F0020FC3
:101B00000ED113F4005F0FD013F4805F0ED0002BC2
:101B1000F3DA13F4803F0BD15B060BD5F0BC7047B2
:101B2000946151619061E8E75561E6E75661E4E749
:101B30009161E2E75761E0E700800D403F4A0320F2
:101B40003F49F3EE095AD2F880304FF0000C9FED78
:101B50003D6A23F001039FED3C5A30B4C2F8803057
:101B6000C2F89000D1F8E010384DCBB2384C39486B
:101B70002B6007EE903A0B0DC1F30B21F8EEE77ADC
:101B800006EE903A07EE101A334BB8EEC77A216092
:101B9000F8EEE66A314937EEC66A37EEC55A76EE98
:101BA000C76A77EEE57A26EE266AC3ED006A25EE6F
:101BB000265AD2F8803067EEA64AC0ED007AC6EE0B
:101BC000275A274885EE276AC4EEA76A75EE875A1A
:101BD000FCEEE55A36EE076A15EE904ABCEEC66A90
:101BE00043EA045376EE877AC2F8803016EE103A54
:101BF000D2F89041FCEEE77A01EA0341214317EE67
:101C0000903AC2F89011C3F30B03D2F890110B4332
:101C10001449C2F89031D2F8803043F00203C2F880
:101C20008030114B80F840C0C1F840314FF0E023C4
:101C3000012230BCC3F80821704700BF00810D406D
:101C400000441F400000AA420000B442A48B0120BF
:101C5000A08B0120A88B0120AC8B01200000FF0F7E
:101C600000E400E00090002069720200314B40F671
:101C7000617210B5C3F8202140F2044400F0D4F89A
:101C80002D4A2E49D2F880302D4843F00303C2F884
:101C900080302C4BC1F8604102681A4203D1D1F860
:101CA000A8319A071BD0254A4FF00041244B5963B5
:101CB000D2F8403143F00203C2F84031D2F840314B
:101CC0009B07FBD44FF400304FF0E0211C4B4FF04A
:101CD0000042C1F88C0219209A6300F0B1F8184A4A
:101CE0004FF08040154C002190630A20164B116084
:101CF0004FF42072C4F8A801184600F09DF84FF484
:101D0000800203464FF4810040F243111860C4F88A
:101D100058311A640D4B0E4AC4F84811C3F8042216
:101D20004FF0E0224FF400310123C2F80C11C4F847
:101D3000403110BD00800D4000C00F4000002E401B
:101D400000900D40001C1E000000002000900020AC
:101D50005174020008B50E4B1B6E9B0700D4FBBEEE
:101D600072B60C4B00200C4AC3F8400103F16043EB
:101D70000A49A3F55F2311649D46BFF34F8F4FF4CB
:101D800000130748074ADB6902609B68984700BF59
:101D900000441F4000002E4000C00A400300200005
:101DA00000802020000012EB104BA020104AD96EBA
:101DB00041F4403110B4D96640F23764D96E41F431
:101DC0004071D96654649064936C1B06FCD4094A34
:101DD00040F23761A02351649364936C13F0800345
:101DE000FBD1054A13705DF8044B704700C00F40EB
:101DF00000400C4000800C40DE8B0120F8B500BF95
:101E0000F8BC08BC9E4670475FF800F02D880200C1
:101E10005FF800F021C702005FF800F06D000000DD
:101E20005FF800F0C98402005FF800F0C17B020097
:101E30005FF800F0916F02005FF800F031C6020019
:101E40005FF800F0916B020045000000FD03000008
:101E500065100000AD31000015450200296902003F
:101E600001000000160355005300420020005300FB
:101E700065007200690061006C00000018035400E6
:101E8000650065006E0073007900640075006900EC
:101E90006E006F000403090409026200030100C020
:101EA00032080B00020202010009040000010202D4
:101EB000010005240010010524010101042402068B
:101EC0000524060001070582031000100904010023
:101ED000020A000000070503024000000705840213
:101EE0004000000904020002FF6AFF0007058102AA
:101EF00040000107050102400001000009026200E4
:101F0000030100C032080B000202020100090400B4
:101F10000001020201000524001001052401010155
:101F200004240206052406000107058203100005AB
:101F300009040100020A0000000705030200020074
:101F4000070584020002000904020002FF6AC700BC
:101F500007058102000201070501020002010000DD
:101F60000A060002EF02014001000000000000002C
:101F70000000000000000000000000000000000061
:101F80000000000000000000000000000000000051
:101F90000548064B1B1AD90F01EBA301491002D0CB
:101FA000034B03B118477047C0920020C092002035
:101FB0000000000008B5054B1BB105490548AFF30B
:101FC0000080BDE80840FFF7E3BF00BF000000004D
:101FD000188B012000D8036000F08CB92DE9F04F78
:101FE000314D83B0314C824689462E68304F40F2E5
:101FF000EE28DFF8D0B028F073F923782BB33B78C4
:10200000DA0722D52B68DBF800209B1A0E2B1CD98F
:102010000025284EDFF8B0802F463246494650460C
:1020200029F030F8431C044625D0612C20D0702CB8
:1020300018D0D9F8001020482CF0AAFDB4F168009F
:1020400018BF012003B0BDE8F08F2B6822789B1BDE
:102050002AB1B3F5FA6FDBD828F042F9CBE7434554
:10206000FAD9D5E7D8F800002DF0C6F90746D4E72D
:10207000D8F80050D1E711490220CDE9005728F0E7
:1020800075FC0E490F2028F071FC0D482CF0E4FD82
:10209000684600F07BF84FF47A7000F0E9F8684683
:1020A00000F038F90020CDE7B88B0120E78B012044
:1020B000E68B01204C860020B80400206900000057
:1020C00054860020C88B0120308B0120704700BF50
:1020D000704700BF034B10B50446036024F0C2FCF8
:1020E000204610BDE46E002030B51C4C97B04FF474
:1020F000A053002122461A480BF0F2FD0322194991
:1021000002AD19481DF06AF90A221849184805F06D
:1021100043FF4FF47A730A2116481A460091194674
:1021200012F0D6FE4822002104A82CF039FA40F61D
:10213000B8301E21234600220095CDE90201C821B6
:102140000D4807F0D3FF0D490D481BF047FB0D4923
:102150000D4811F075FD17B030BD00BF108B012088
:102160008CF90020B08E0020D8EB0020408B01209D
:10217000D0A50020D8BD0020FCF20020008B01205B
:1021800078800120D48A01208402012070B52D4C72
:10219000054601212C4828F025F8204626F0A2FC0F
:1021A000284600F02BF90121284828F01BF820468A
:1021B00026F098FC264E00F0BFF90121254828F0B2
:1021C00011F8204626F08EFC00F062FA0121224828
:1021D00028F008F8204626F085FC00F0E9FD0121F2
:1021E0001E4827F0FFFF204626F07CFCFFF77CFF0F
:1021F00001211B4827F0F6FF204626F073FC012141
:10220000184827F0EFFF204626F06CFC284600F027
:10221000F5FD0121144827F0E5FF204626F062FC79
:102220004FF47A71304602F01BFF304602F046FF51
:1022300001210E4827F0D6FF2046BDE8704026F069
:1022400051BC00BFA0880020F85E0020FC5E00208A
:102250009CA40020885E0020005F0020045F002016
:10226000085F00200C5F0020105F0020145F00203A
:102270002DE9F0410B210546194827F0B3FF194F0E
:10228000194826F02FFC194823F0BAF83C78174873
:10229000E4B223F0B7F801210D2026F0EBFCECB1FD
:1022A000DFF84C80114E404603F08AF901210D20E1
:1022B00026F0A4FC284626F023FC00210D2026F061
:1022C0009DFC284626F01CFC304623F099F83C780B
:1022D0003046E4B223F096F8002CE4D1BDE8F0815A
:1022E000185F0020D28E0020A0880020B08301203B
:1022F0001C7C012008B5054823F082F8044B00221D
:1023000002481A70BDE8084023F07CB8B083012071
:10231000D28E002010B5044600F0E6FD204600F005
:1023200019FE03490348BDE810400BF0DDBC00BFB7
:10233000108B01208CF90020054B10B5044603607A
:1023400024F090FB204626F067FD204610BD00BF1C
:10235000E46E002010B5044626F05EFD204610BD58
:1023600010B5044626F058FD204610BD70B5184E35
:10237000184C194D304623F089FB22461749304648
:102380002CF0BCF9284624F043FE2846144D224682
:1023900014492CF0B3F928461CF00AFB2846124DCC
:1023A000224612492CF0AAF928461CF00BFB2846BD
:1023B0000F4D22460F492CF0A1F9284623F010F8C2
:1023C000224628460C49BDE870402CF097B900BF62
:1023D0000C8B0120C4880020108B012065010000B7
:1023E000008B012051500200D48A01205D010000C1
:1023F000B0830120610100006134020008B50022B1
:102400000A21354801F0C4FD01220A21334803F0B6
:10241000D5F802221421324808F08EFD03220A2149
:1024200030480BF05BFC04212F4811F0C9F905215D
:102430002E4800F0FDFF06212D481BF0CDF90722A4
:102440000A212C4804F06EF808212B4806F022FCE3
:1024500009212A4812F034F90A221E21284812F0D4
:10246000A9FC0B221E21274815F064FD0C221E2119
:10247000254819F0EDF80D21244807F0BBFD0E2189
:10248000234802F0D7FC0F21224802F0E7FD10227A
:102490000A21214805F0BAFD112120481DF000F85D
:1024A00012211F481DF008FB13211E481EF0BCF925
:1024B00014211D4800F04AFF15211C481CF0ACFEF9
:1024C0000A211B48162221F057FB17211948BDE8A5
:1024D000084011F0B3BB00BFA09400201C7C012079
:1024E000940E01208CF90020C4F600209C9B002053
:1024F000788001207CAF002080BB002014BD00202C
:10250000D8BD0020C0B60020689E0020FCF200204C
:102510006CA300209CA40020D0A50020D8EB0020B4
:1025200030C80020E0ED0020F4AD0020B8AE00205F
:102530005C3601208402012008B54FF480713C48CC
:1025400023F0E6FB4FF400713A4823F0E1FB4FF42F
:10255000A061394823F0DCFB4FF4C061374823F019
:10256000D7FB4FF4E061364823F0D2FB4FF4006113
:10257000344823F0CDFB4FF41061334823F0C8FBFF
:102580004FF43061314823F0C3FB4FF440613048D1
:1025900023F0BEFB4FF470612E4823F0B9FB4FF4DB
:1025A00080412D4823F0B4FB4FF482412B4823F0A7
:1025B000AFFB4FF484412A4823F0AAFB4FF4864135
:1025C000284823F0A5FB4FF48841274823F0A0FBBF
:1025D0004FF48A41254823F09BFB4FF48C4124485B
:1025E00023F096FB4FF48E41224823F091FB4FF4E9
:1025F0009041214823F08CFB4FF492411F4823F077
:1026000087FB4FF494411E4823F082FB4FF498411E
:102610001C4823F07DFB4FF49A411B4823F078FBC4
:102620004FF4A0411948BDE8084023F071BB00BF3A
:102630001C7C0120D0A50020940E01208CF90020E4
:10264000D8BD0020C0B60020689E00207CAF0020CE
:102650005C360120A09400209C9B00207880012003
:1026600080BB002014BD0020FCF20020F4AD00204F
:10267000D8EB002030C80020B8AE00208402012032
:10268000E0ED00209CA400206CA30020C4F60020F4
:102690002DE9F84FDFF804B40021F04C5846DFF87C
:1026A000009401F043FB00210246204608F08CFF15
:1026B00000212046EA4D08F0A5FE012102462046F1
:1026C00008F082FF00214846DFF8D8A30CF06AFC2E
:1026D00002210246204608F077FF00212846E14EFD
:1026E00004F0D4F803210246204608F06DFF0021D3
:1026F0005046DFF8B48313F023F904210246204644
:1027000008F062FF0021D84815F0EAFE05210246D4
:10271000204608F059FF0021D4481EF00DFA06218A
:102720000246204608F050FF00212046D04F08F016
:102730007BFE00210246584601F01CFB0121204689
:1027400008F072FE00210246204608F0AFFE02218A
:10275000204608F069FE0021024648460CF06EFC57
:102760000321204608F060FE00210246284604F0BE
:10277000B1F80421204608F057FE002102465046D9
:1027800013F006F90521204608F04EFE002102460E
:10279000B54815F0CDFE0621204608F045FE002183
:1027A0000246B2481EF0E8F90021204608F054FE27
:1027B00000210246584601F0F3FA0021204608F0B5
:1027C0004BFE00210246204608F088FE00212046EC
:1027D00008F042FE0021024648460CF045FC00216C
:1027E000204608F039FE00210246284604F088F809
:1027F0000021204608F030FE00210246504613F02A
:10280000DDF80021204608F027FE00210246964808
:1028100015F0A4FE0021204608F01EFE002102460D
:1028200092481EF0BFF9002192481DF067F900217F
:102830000246914800F0BCFE0021504613F06EF8AD
:102840000021024630461BF071F8002189481DF036
:102850003DF90021024630461BF07EF800218648F3
:1028600000F080FE0021024630461BF08BF800216C
:1028700030461BF04BF800210246284604F098F839
:10288000002130461BF032F800210246504613F07A
:1028900069F83046794E00211BF038F800210246D5
:1028A000304621F037FB0021284604F001F80021D2
:1028B0000246584601F0A0FA0021284603F0F8FF2E
:1028C00000210246204608F01FFE0021284603F0A2
:1028D000EFFF0021024648460CF0F2FB002128469B
:1028E00003F0E6FF00210246284604F035F80021F7
:1028F000284603F0DDFF00210246614806F0D2FAC7
:102900000021284603F0D4FF00210246504613F070
:102910006BF80021284603F0CBFF00210246524805
:1029200015F032FE0021284603F0C2FF00210246C6
:10293000544819F02FFA0021284603F0B9FF00216E
:102940000246514807F004FD0021284603F0B0FF7D
:1029500000210246404605F099FC0021284603F07C
:10296000A7FF0021024641481EF032F900214748E6
:1029700011F0D6FE00210246284603F0D7FF0021C1
:1029800043481CF0ABFD434B02460021184602F0C1
:1029900067FE0021384800F0D5FD00210246404680
:1029A00005F0A0FC0021584601F0D2F901210246B1
:1029B000404605F097FC0021304621F087FA0221BD
:1029C0000246404605F08EFC002128481EF0C4F85F
:1029D00003210246404605F085FC002148460CF0E4
:1029E00005FB04210246404605F07CFC00214046E0
:1029F00005F03AFC0021024625481CF07FFD00212D
:102A000048460CF0E1FA00210246204608F0F6FDA7
:102A10000021204608F032FD0021024648460CF015
:102A200039FB00211C4802F05BFA0021024658469F
:102A300001F0CCF90021304621F05AFA002102467B
:102A4000584601F01BFA0021304621F051FA114B93
:102A500002460021184602F02FFE27E0940E0120C6
:102A60007CAF002078800120C0B60020E0ED00207F
:102A7000B8AE002030C800209C9B00205C360120AE
:102A800080BB0020689E0020FCF2002014BD0020C6
:102A9000D8EB00201C7C01206CA30020A094002017
:102AA0008CF90020D8BD0020D0A5002000213046A0
:102AB00021F01EFA00210246204608F06DFD00219B
:102AC000304621F015FA0021024648460CF024FB5E
:102AD0000021304621F00CFA00210246504612F047
:102AE000C5FF0021304621F003FA00210246A64826
:102AF00015F076FD0021304621F0FAF9002102465A
:102B0000A24819F073F90021304621F0F1F90021B3
:102B100002469F4807F05EFC0021304621F0E8F9AC
:102B200000210246404605F00BFC30460021994E3C
:102B300021F0DEF90021024697481EF08BF80021B3
:102B400038461CF093FB00210246584601F06AF912
:102B5000002138461CF08AFB00210246204608F07E
:102B6000EBFC002138461CF081FB00210246484660
:102B70000CF04EFA002138461CF078FB002102468A
:102B8000284603F0FFFE002138461CF06FFB0021B1
:102B90000246824806F09CF9002138461CF066FB8C
:102BA00000210246504612F035FF002138461CF045
:102BB0005DFB00210246744815F0A4FC0021384654
:102BC0001CF054FB00210246704819F0B7F80021B0
:102BD00038461CF04BFB002102466D4807F0CEFB47
:102BE000002138461CF042FB00210246404605F019
:102BF00063FB384600211CF039FB00210246664881
:102C00001DF0FCFF0021304620F0E0FD00210246CF
:102C1000584601F01DF90021304620F0D7FD604BE9
:102C200002460021184602F031FD0021304620F016
:102C3000CDFD00210246204608F096FC00213046DA
:102C400020F0C4FD0021024648460CF04FFA002156
:102C5000304620F0BBFD00210246284603F0BEFEB0
:102C6000002130464F4D20F0B1FD002102464B4877
:102C700006F044F90021304620F0A8FD002102466C
:102C8000504612F0DDFE0021304620F09FFD00216D
:102C900002463D4815F08EFC0021304620F096FD9E
:102CA00000210246394819F08BF80021304620F007
:102CB0008DFD00210246364807F076FB00213046A4
:102CC00020F084FD00210246404605F023FB3046FB
:102CD000002120F07BFD002102462F481DF0A4FFBB
:102CE0000021284611F0AAF901210246204608F0E9
:102CF00085FC01212C481CF0E9FE002102462B48EE
:102D000000F040FC0021284611F0A8F900210246FD
:102D1000264800F063FC00211D4807F009FB002154
:102D200002461A4819F020F80021194807F0F0FA75
:102D300000210246284611F0A1F90021144807F0AD
:102D4000F7FA00210246284611F0AEF900210F489B
:102D500018F0E2FF00210246284611F0BBF90121DC
:102D6000204608F08BFB00210246284611F0C8F9E6
:102D700001210D481CF0C2FE002102462846BDE894
:102D8000F84F11F0D3B900BFC0B60020689E0020F4
:102D9000FCF20020F4AD0020E0ED002080BB00201C
:102DA0001C7C01208402012030C800209C9B002054
:102DB00008B50B4801F078F80A4808F039FC0A48D1
:102DC0000CF0C0F9094803F01FFE094812F064FE38
:102DD000084815F01BFC0848BDE808401DF050BF2E
:102DE000A0940020940E01208CF900207CAF0020DC
:102DF000D8BD0020C0B60020E0ED00202F48002301
:102E00004FF480325F2130B5046883B02C48092527
:102E10000093234622F09CF9012023464FF4803290
:102E200000908C21274822F093F9022023464FF48A
:102E3000803200906521244822F08AF9032023463D
:102E40004FF4803200906421204822F081F9042060
:102E500023464FF48032009062211D4822F078F919
:102E6000052023464FF4803200906421194822F057
:102E70006FF9062023464FF48032009064211648F3
:102E800022F066F9072023464FF480320090642137
:102E9000124822F05DF9082023464FF4803200905A
:102EA00078210F4822F054F923464FF480326121F3
:102EB0000C48009522F04CF903B030BD8417002077
:102EC000A09400201C7C0120940E01208CF900208D
:102ED0007CAF0020D8BD0020C0B60020689E002036
:102EE000D0A500205C36012008B5104822F0FAF881
:102EF0000F4822F0F7F80F4822F0F4F80E4822F0BD
:102F0000F1F80E4822F0EEF80D4822F0EBF80D48EB
:102F100022F0E8F80C4822F0E5F80C4822F0E2F83C
:102F20000B48BDE8084022F0DDB800BFA0940020A7
:102F30001C7C0120940E01208CF900207CAF002025
:102F4000D8BD0020C0B60020689E0020D0A500207B
:102F50005C36012008B50021144822F0E7F8002172
:102F6000134822F0E3F80021124822F0DFF8002194
:102F7000114822F0DBF80021104822F0D7F8002198
:102F80000F4822F0D3F800210E4822F0CFF800219C
:102F90000D4822F0CBF800210C4822F0C7F80021A0
:102FA0000B48BDE8084022F0C1B800BFA094002043
:102FB0001C7C0120940E01208CF900207CAF0020A5
:102FC000D8BD0020C0B60020689E0020D0A50020FB
:102FD0005C36012038B5794D794C7A49284600F0A5
:102FE000DFFC2846784D224678492BF087FB78494C
:102FF000284602F0D5FA2846764D224676492BF02F
:103000007DFB7649284607F073FF2846744D22461B
:1030100074492BF073FB744928460AF01BFE2846BE
:10302000724D224672492BF069FB7249284610F016
:10303000B7FB2846704D224670492BF05FFB704964
:10304000284600F0E7F928466E4D22466E492BF0DF
:1030500055FB6E4928461AF0ABFB28466C4D2246BC
:103060006C492BF04BFB6C49284603F011FA2846BB
:103070006A4D22466A492BF041FB6A49284605F011
:10308000F3FD2846684D224668492BF037FB684916
:10309000284611F00BFB2846664D224666492BF068
:1030A0002DFB6649284611F035FE2846644D224620
:1030B00064492BF023FB6449284614F02BFF284673
:1030C000624D224662492BF019FB6249284618F0EE
:1030D00097FA2846604D224660492BF00FFB604965
:1030E000284606F06FFF28465E4D22465E492BF0CB
:1030F00005FB5E49284601F08FFE28465C4D2246BE
:103100005C492BF0FBFA5C49284601F091FF284608
:103110005A4D22465A492BF0F1FA5A49284604F0F2
:1031200023FF2846584D224658492BF0E7FA5849C4
:1031300028461CF043F92846564D224656492BF0A6
:10314000DDFA564928461CF0A9FC2846544D224673
:1031500054492BF0D3FA544928461DF0DFFA28468B
:10316000524D224652492BF0C9FA5249284600F0E6
:10317000E3F82846504D224650492BF0BFFA5049FB
:1031800028461CF03FF828464E4D22464E492BF06B
:10319000B5FA4E49284620F091FC28464C4D22466F
:1031A0004C492BF0ABFA4C49284610F025FD22463D
:1031B00028464A49BDE838402BF0A0BAA094002028
:1031C000C48800208C0300201C7C01207D1A000094
:1031D00094030020940E0120F1350000A00300208C
:1031E0008CF90020E58D0000A8030020C4F6002023
:1031F0000DC70000B00300209C9B0020C1160100F9
:10320000B803002078800120E1130000C4030020EF
:103210007CAF002025B70100D003002080BB002038
:10322000B9450000DC03002014BD0020BD6C000087
:10323000EC030020D8BD00200D270100FC03002076
:10324000C0B60020B92F01000C040020689E0020A9
:103250006D5F010018040020FCF20020459701007A
:10326000240400206CA30020198100003C040020ED
:103270009CA40020792E000048040020D0A5002046
:103280006930000054040020D8EB0020BD5F00002E
:103290006004002030C80020A5D301007004002085
:1032A000E0ED002001DA010080040020F4AD0020F0
:1032B00035E7010090040020B8AE00207113000033
:1032C0009C0400205C360120EDD10100A804002000
:1032D000840201200D1C0200B0040020FD1B01002F
:1032E000034B10B50446036020F0B4FA204610BD2D
:1032F00004750020054B10B50446036020F0AAFABF
:10330000204625F089FD204610BD00BF0475002031
:1033100038B5074B15461C6825F046FC054B0246A0
:103320002846A3FB0431BDE83840890923F01CB8C6
:10333000B88B0120D34D621010B5044620F056FA28
:10334000014B2046236010BD0475002020F05CBABC
:10335000034B10B50446036000F0C0FA204610BDD0
:10336000AC7E0020054B10B50446036000F0B6FAB1
:10337000204625F051FD204610BD00BFAC7E002048
:1033800010B5044682B008461946CDE9000300F0A6
:1033900055F8019A0021009800F002FA204623F027
:1033A000FFFE034A002320462260237102B010BDB5
:1033B0008C6F002030B58DB00446402300220146BA
:1033C00003A800F0D5F903A920460F4D00F058F8E6
:1033D00001A823F0E5FE002101AB03AA20468DF8E9
:1033E0000810019500F0F4F901A8019523F0DEFE24
:1033F000064A074B04A8CDE9032323F0E1FE03A806
:1034000023F0D4FE0DB030BD706F00201C6D002085
:103410005C6C002010B5044600F0F6F80023034A67
:1034200020462260C4E9B13310BD00BFAC7E00204D
:1034300000F010B926F06CBE26F0AEBE70B5D0F824
:10344000C85282B00C468DB12B6820465E681CF0D5
:10345000A1FD0146204601911CF09EFD0199024606
:103460003346284602B0BDE8704018470646292179
:10347000024823F0E5FBD6F8C852E5E7D05A002011
:103480002DE9F843D0F8C85208460F4600241CF036
:1034900081FDDFF85C80DFF85C90461E14E026F0CA
:1034A00037FE03463846002B18DD1CF075FDA042A0
:1034B00014D92B685B694B4516D126F06DFE431C71
:1034C0000CD0013406F8010F2B681B694345E6D088
:1034D0002846984703463846002BE6DC2146384606
:1034E000BDE8F8431CF064BD28469847E7E700BFF5
:1034F000C5140000C914000000F52F7021F080BF32
:1035000000F52F7021F07EBF70B50D4604461646BB
:1035100078B1002D05DD2A464FF4F171084823F0FB
:10352000EDFB23683246294620465B69BDE87040C2
:10353000184740F2C511024823F082FBE9E700BFBB
:10354000645C002038B50D1E044604DD2A461C21AB
:10355000034823F0D3FB682303FB05405C3038BDF0
:10356000645C002038B50D1E044604DD2A46232184
:10357000034823F0C3FB682303FB0540C43038BD78
:10358000645C002070B50D1E0446164604DD2A4614
:103590003121064823F0B2FB6423314603FB05408A
:1035A000BDE8704000F596701CF0A0BD645C002082
:1035B00070B50D1E0446164604DD2A463B2106481A
:1035C00023F09CFB6423314603FB0540BDE87040BB
:1035D00000F5C8701CF09CBE645C002070B50D1E28
:1035E0000446164604DD2A464F21064823F086FB92
:1035F0006423314603FB0540BDE8704000F51670BA
:103600001AF02EBE645C002010B5044622F06AFB5E
:103610000F4B204640F85C3B21F014F804F1C40045
:103620001AF0B8FE04F596701CF054FD04F5C8704D
:103630001CF062FE04F5FA701AF012FD04F5167023
:103640001AF002FE04F52F7021F0CAFE204610BDCC
:10365000007F00202DE9F0430446A1B0002522F0B0
:103660004FFB04F15C08261D04F1C40704F59679AC
:10367000404621F08FF8364A2146404620F0EEFFC2
:103680002946404623F082F83346324A782102A880
:1036900000952DF0BBF802A9404604F5C87823F048
:1036A000B1F938461AF0FEFE2B4A214638461AF088
:1036B0007DFE2946384623F069F83346274A7821AB
:1036C00002A800952DF0A2F802A9384604F5FA7771
:1036D00023F098F948461CF03BFD3346204A7821F8
:1036E00002A800952DF092F802A9484604F5167438
:1036F00023F088F940461CF05BFE3346194A7821D6
:1037000002A800952DF082F802A9404623F07AF92C
:1037100038461AF0B3FC3346134A782102A80095C4
:103720002DF074F802A9384623F06CF920461AF0FF
:10373000F5FD33460D4A782102A800952DF066F874
:1037400002A9204623F05EF921B0BDE8F08300BF56
:1037500099150000005D0020311900001C5D00205B
:10376000345D0020505D0020705D00208C5D0020E5
:10377000F8B5161E05460C461F4604DD40F237110B
:10378000064823F0BBFA642328463A4603FB064169
:1037900001F596711CF0BAFC2846F8BD645C002067
:1037A00070B50D1E0446164605DD2A4640F241114D
:1037B000064823F0A3FA6423314603FB0540BDE825
:1037C000704000F5C8701CF0B3BD00BF645C002001
:1037D000F8B50D1E044616461F4605DD2A464FF471
:1037E000A971074823F08AFA64233A46314603FB5D
:1037F0000540BDE8F84000F516701AF041BD00BF65
:10380000645C00202DE9F041161E82B005460C468E
:103810001F4604DD40F2F1111D4823F06FFADFF876
:103820007C80284623F0BCFC0022C5F80080236879
:10383000DB682A71174A934220D104F52F7021F0DA
:10384000DFFD216832463B4668468E692146B04717
:10385000694628461AF028FF6846CDF8008023F014
:10386000A5FC23680C4A1B6993420AD104F52F700A
:1038700021F0C8FD284602B0BDE8F08120469847F7
:10388000DFE720469847284602B0BDE8F08100BF38
:10389000645C002089150000911500008C6F0020E9
:1038A00030B5044683B00D4631B120462946FFF7B6
:1038B000A9FF204603B030BD40F2D1110648CDE942
:1038C000002323F0BDF920462946DDE90023FFF758
:1038D00099FF204603B030BD645C002010B5174B43
:1038E000044600F52F70236021F072FDD4F85832A1
:1038F00004F516705B689847D4F8F43104F5FA7053
:103900005B689847D4F8903104F5C8705B689847B5
:10391000D4F82C3104F596705B689847D4F8C4301D
:1039200004F1C4005B689847E36D04F15C005B68D8
:103930009847204622F0BEF9204610BD007F0020A7
:10394000F0B583B004460D46134F684623F028FCBB
:1039500000236946204600978DF8043000F0EAFC09
:103960009DF804200646012A06D15DB168460097FD
:1039700023F01CFC03B0F0BD2521084823F0BEF95C
:10398000002DF3D13146204600F0E0FE6846009756
:1039900023F00CFC03B0F0BD846600208C5E002098
:1039A00010B5044600F0AAFA0C4B04F294502360C0
:1039B00021F016FD04F29C5023F0F2FB084A00238C
:1039C0000921C4F89C2584F8A035064826F00AFC95
:1039D000054825F087F8204610BD00BF387F00203D
:1039E000AC6C0020EC5E0020A088002010B5094AD5
:1039F0000446094B00F29C502260C4F89C3523F029
:103A0000D5FB04F2945021F0E3FC204600F0BEFD0B
:103A1000204610BD387F0020AC6C002010B50B4A4A
:103A200004460B4B00F29C502260C4F89C3523F0F6
:103A3000BDFB04F2945021F0CBFC204600F0A6FD23
:103A4000204625F0E9F9204610BD00BF387F002050
:103A5000AC6C00202DE9F04705218AB00446574898
:103A600026F0C0FB564825F03DF802A823F098FB4D
:103A7000544D002302A9204602958DF80C3000F029
:103A800059FC9DF80C3004F2945613F0FD0F18BF4A
:103A90000746304608BF002721F0B2FC304694F8B4
:103AA000B46521F0AFFC36B902A8029523F07EFB85
:103AB0000AB0BDE8F08704A8DFF80C8123F070FBA2
:103AC00094F8A025D4F8B035CDF810808DF81420E6
:103AD000002B69D1002A67D1012104A824F020FC21
:103AE00094F8A0259DF814309A424FD0D4F8A82518
:103AF00006AED4F8AC3512F10109304643F1000AA4
:103B0000C4F8A895C4F8ACA522F0F8FB4A46534681
:103B10002046009600F0D6FD304622F097FB0021AB
:103B2000204600F047FBD0B19DF814903046DFF8F6
:103B30009CA023F035FBA9F1010920463246002163
:103B4000B9FA89F9CDF818A04FEA59198DF81C90E7
:103B500000F018FB3046CDF818A023F027FB3046C4
:103B600023F01EFB9DF81430314620468DF81C30A2
:103B7000CDF8188000F0B6FF3046CDF8188023F05D
:103B800015FB04A904F29C5024F0C6FBD4F8B03510
:103B9000013304A8CDF81080BB4228BF0023C4F82D
:103BA000B03523F003FB7FE7B3EB570FF0D1012AC9
:103BB000EED1002104A824F0B3FB91E7845E00203D
:103BC000A088002084660020AC6C0020006D0020DE
:103BD0002DE9F047054686B018461E460F4690462A
:103BE00024F0A0FB48BB02ACDFF8BCA04FF00209F8
:103BF000204623F0D5FA3379284621468DF80C303B
:103C0000CDF808A000F032FE2046CDF808A023F041
:103C1000CDFA244E204623F0C3FA284642463946C0
:103C200023468DF80C90029600F0DAFA20460296B0
:103C300023F0BCFA06B0BDE8F087002305F29450EB
:103C400002ACDFF864A0C5F8B0359946019021F0C8
:103C5000D7FB33790198A3F10103B3FA83F35B092E
:103C600085F8B43521F0CEFB204623F099FA33795C
:103C7000214628468DF80C30CDF808A000F094FEBF
:103C80002046CDF808A023F091FA204622F036FB1A
:103C900028462246314600F0D3FC204622F0D6FAD0
:103CA000B7E700BFC8660020AC6C00208C207047CE
:103CB0000C307047704700BF704700BF704700BFAF
:103CC000034B10B50446036023F07AFA204610BD7A
:103CD000707F0020054B10B50446036023F070FA96
:103CE000204625F099F8204610BD00BF707F0020C7
:103CF00070B50D460446164678B1002D05DD2A46FE
:103D000040F23161084822F0F9FF23683246294623
:103D10002046DB69BDE8704018474FF4C461024893
:103D200022F08EFFE9E700BF245F002038B50D1EAA
:103D3000044604DD2A465221044822F0DFFF6823AE
:103D400003FB054000F5967038BD00BF245F0020DE
:103D500038B50D1E044604DD2A465921044822F0D8
:103D6000CDFF682303FB054000F5CA7038BD00BFD6
:103D7000245F002070B50D1E0446164604DD2A4659
:103D80006721064822F0BAFF6423314603FB054051
:103D9000BDE8704000F5FE701EF02EBD245F0020CF
:103DA00070B50D1E0446164604DD2A4671210648EC
:103DB00022F0A4FF6423314603FB0540BDE87040B8
:103DC00000F518701EF0D8BE245F002070B50D1EDF
:103DD0000446164604DD2A467B21064822F08EFF63
:103DE0006423314603FB0540BDE8704000F53170A7
:103DF00001F062BB245F002070B50D1E044616461C
:103E000004DD2A468521064822F078FF64233146E6
:103E100003FB0540BDE8704000F54A701FF0C8B9CB
:103E2000245F002070B50D1E0446164604DD2A46A8
:103E30009021064822F062FF6423314603FB0540CF
:103E4000BDE8704000F563701FF0C4BB245F002024
:103E500070B50D1E0446164604DD2A46AF210648FD
:103E600022F04CFF6423314603FB0540BDE870405F
:103E700000F5976022F0C8BB245F002070B50D1ECE
:103E80000446164604DD2A46B921064822F036FFCC
:103E90006423314603FB0540BDE8704000F21C502E
:103EA00020F06CBF245F002038B500F5FE75044695
:103EB000284622F033FDC0B1204621F02BFF0146F9
:103EC00028461EF0A9FC204621F024FF0146284682
:103ED00001311EF0A1FC204621F01CFF01462846BE
:103EE0000231BDE838401EF097BC4FF4947102488F
:103EF00022F0A6FEE0E700BF245F002038B50446AC
:103F000021F0E0F8204B04F5967004F5B1652360CC
:103F10001EF09CFA04F5CA7020F094FB04F5FE70C4
:103F20001EF05EFC04F518701EF01AFE04F53170E8
:103F300001F0B6FA04F54A701FF02EF904F563702B
:103F40001FF03CFB04F57C701CF0EAFA04F25440CC
:103F50001CF04EFB04F5976022F04AFB04F21C5063
:103F600020F000FF04F5B06021F03AFA284623F073
:103F700017F90021054B284684F88C15C4F88835BC
:103F80001CF074FA204638BD8C7F00208466002027
:103F90002DE9F0470446A0B08946114604F596780D
:103FA000002521F09DF8261D404604F5CA771EF035
:103FB00013FB664A404621461EF054FA4046294605
:103FC00004F5FE7A22F0E2FB3346614A782102A82A
:103FD00000952CF01BFC02A9404604F5187822F04D
:103FE00011FD384620F0D6FB5A4A3846214620F0CB
:103FF00035FB3846294622F0C9FB3346564A78211C
:1040000002A800952CF002FC02A9384604F531778D
:1040100022F0F8FC50461EF03FFC33464F4A782110
:1040200002A800952CF0F2FB02A9504622F0EAFC0F
:1040300040461EF011FE3346494A782102A80095F9
:104040002CF0E4FB02A9404604F54A7822F0DAFCA1
:10405000384601F081FA3346424A782102A8009599
:104060002CF0D4FB02A9384604F5637722F0CAFC91
:1040700040461FF07BF933463B4A782102A8009561
:104080002CF0C4FB02A9404604F57C7822F0BAFC6F
:1040900038461FF07DFB3346344A782102A800954C
:1040A0002CF0B4FB02A9384604F2544722F0AAFCD3
:1040B00040461CF041FA33462D4A782102A800956B
:1040C0002CF0A4FB02A9404604F5976822F09AFC64
:1040D00038461CF0E5FA3346264A782102A80095B6
:1040E0002CF094FB02A9384604F21C5722F08AFCFB
:1040F000404622F005FB33461F4A782102A800956E
:104100002CF084FB02A9404622F07CFC384620F0CB
:10411000EBFE1A4A3346782102A800952CF076FB74
:1041200002A9384622F06EFC8C224946204620F037
:104130001FFF10B920B0BDE8F087024640F277219A
:104140000F4820B0BDE8F04722F0D8BDF5240000AC
:104150008C600020811D0000A4600020BC60002055
:10416000DC600020006100201C610020386100201C
:10417000586100207861002098610020B86100201B
:10418000245F002070B50D1E0446164605DD2A4644
:1041900040F28D21064822F0B1FD6423314603FB35
:1041A0000540BDE8704000F5317001F095B900BFE1
:1041B000245F002038B50D1E044605DD2A464FF465
:1041C0003D71064822F09AFD642303FB0540BDE8DB
:1041D000384000F5317022F0A1BB00BF245F002001
:1041E00030B500F5187483B00D462046CDE9003295
:1041F00022F094FBDDE9003230B12946204603B0BD
:10420000BDE830401EF0C8BC40F27E310648CDE922
:10421000002322F015FD29462046DDE9002303B0E6
:10422000BDE830401EF0B8BC245F00202DE9F0410D
:104230001E4603683C4DA6B05B6A04468846174696
:10424000AB426ED1394D684622F0B2FF012168467B
:10425000009523F09DF830BB0021684623F098F8C4
:1042600068BB4146684623F031F8002833D139460F
:10427000684623F02BF8002839D13146684623F0F0
:1042800015FA00283FD10123002204F15C006946A1
:1042900020F0C6FF00283DD16846009522F090FF2F
:1042A00026B0BDE8F08102464FF46671204822F046
:1042B00025FD0021684623F06BF80028D1D0024686
:1042C0004FF468711A4822F019FD4146684622F001
:1042D000FDFF0028CBD0024640F2A631144822F060
:1042E0000DFD3946684622F0F1FF0028C5D0024690
:1042F0004FF46B710E4822F001FD3146684623F001
:10430000D5F90028BFD0024640F2B231084822F069
:10431000F5FCB8E702464FF46F71054822F0EEFC59
:10432000BAE798478EE700BF451D0000707F002068
:10433000245F002070B500F5B0660D460446304697
:1043400021F05EF804F5B16128461CF08BF8D4F832
:104350009045304621F056F8204670BDF0B583B048
:1043600004460D46104601A923F07AFA48B12046CA
:1043700022F016FF154A022320462260237103B063
:10438000F0BD05F5B0670646384621F039F8019BC7
:10439000012105F5B160C5F890351CF067F8384685
:1043A00021F030F82B680A4A9B6A934209D12046D3
:1043B00022F0F6FE054A002320462260237103B056
:1043C000F0BD314628469847F1E700BFC866002097
:1043D000491D00002DE9F04101F25447A2B0044606
:1043E0000D46384622F09AFA30B305F5B06801A8B8
:1043F0001BF0FCFF404621F003F8D5F8901501A80A
:1044000022F064FF0646404620F0FCFFFEB9284635
:1044100021F080FC01AA014638461CF0F5F8204640
:1044200022F0BEFE0E4B2671236001A81BF0C6FFD2
:10443000204622B0BDE8F081204622F0B1FE084AB5
:10444000042320462260237122B0BDE8F08120467B
:1044500022F0A6FE024A022322602371E5E700BF94
:10446000C86600202DE9F04385B0164605461F4674
:10447000DDF83080002879D0284621F04BFCB0428E
:10448000044626D8341B012C2DD0022C5FD0002CE2
:1044900054D002AC05F51875DFF8EC80204622F008
:1044A0007FFE01232846CDF808808DF80C3022F0DD
:1044B00035FA002854D028463A46314623461EF0A5
:1044C0006BFB2046CDF8088022F070FE05B0BDE8F9
:1044D000F083341B034632464FF45371294822F0CF
:1044E0006DFC012CD1D1E9462946424602AC484632
:1044F00005F51875FFF732FF2046DFF88C8022F0B3
:104500004FFE9DF804302846CDF808808DF80C3019
:1045100022F004FA80B33A463146234628461EF07C
:104520003BFB2046CDF8088022F040FE4846CDF8FF
:10453000008022F03BFE05B0BDE8F08343463A46DA
:104540003146284605B0BDE8F043FFF76FBEE946A7
:10455000294602AC05F518754846FFF73BFFCBE747
:1045600040F27E31074822F06BFBA4E74FF4527112
:10457000044822F065FB7FE740F27E31014822F0DB
:104580005FFBC8E7245F0020C866002010B52A4AF8
:1045900004462A4B00F5B1602260C4F8883522F049
:1045A00005FE04F5B06020F013FFD4F81C3504F2CA
:1045B0001C505B689847D4F8B83404F597605B6882
:1045C0009847D4F8543404F254405B689847D4F8C0
:1045D000F03304F57C705B689847D4F88C3304F5AD
:1045E00063705B689847D4F8283304F54A705B68B9
:1045F0009847D4F8C43204F531705B689847D4F812
:10460000603204F518705B689847D4F8FC3104F503
:10461000FE705B689847D4F8943104F5CA705B6803
:104620009847D4F82C3104F596705B68984720467B
:1046300020F080FD204610BD8C7F00208466002085
:104640002DE9F04100F21C57A2B004460E46384650
:10465000154622F063F910B922B0BDE8F08104F5E7
:104660009768404622F05AF9B0B901A820F0B2F894
:10467000314601A823F014F8C8B9204621F04AFBBE
:1046800001AB01462A46384620F088FB01A820F0FD
:1046900089F822B0BDE8F0810849284621F074FE6F
:1046A0000028E2D04046294621F0BEFFDDE7024661
:1046B00040F2D931024822F021FBDEE7789B00204E
:1046C000245F00202DE9F04100F21C57A2B00446FF
:1046D000164638461D4622F021F910B922B0BDE831
:1046E000F08104F59768404622F018F9B8B901A89E
:1046F00020F070F832462B4601A822F0ABFEC8B974
:10470000204621F007FB01AB411C289A384620F0D7
:1047100045FB01A820F046F822B0BDE8F081094928
:10472000289821F031FE0028E1D04046289921F058
:104730007BFFDCE702464FF47D71034822F0DEFA8E
:10474000DEE700BF789B0020245F00202DE9F043C6
:104750000446ADF50B7D0E4604F5976505A821F0DE
:10476000CDFD284622F0DAF8B8B904F54A7520469E
:1047700021F0D0FAC71C284622F0D0F8002840D1FA
:1047800004F56375284622F0C9F858B905A821F048
:104790005DFD0DF50B7DBDE8F08305A9284621F0F0
:1047A00043FFE2E72D4A231D4FF4807149AC00928C
:1047B00009A82B4A01962CF029F8002309A92046C4
:1047C0008DF823311EF02EFC03A822F0E9FC05230E
:1047D0002846244D394605AA8DF8103003AB0094C5
:1047E00003951EF007FF03A8039522F0DFFC204687
:1047F0001EF000FC05A821F029FD0DF50B7DBDE89C
:10480000F0830DF5927840461EF044FA314640465A
:1048100022F05CFDD0B909A8DFF8489022F0C0FC76
:104820000523284605AA39468DF82830CDF80080A2
:1048300009ABCDF824901EF0CBFC09A8CDF824904C
:1048400022F0B4FC40461EF00DFA99E7024640F211
:10485000DF51054822F052FADDE700BF006000207A
:10486000D85F0020E4660020245F00202DE9F0439B
:104870000446ADF54B7D0E4604F5976504A821F07E
:104880003DFD284622F04AF8B8B904F54A7520469D
:1048900021F040FA0746284622F040F800284FD180
:1048A00004F56375284622F039F858B904A821F0B8
:1048B000CDFC0DF54B7DBDE8F08304A9284621F021
:1048C000B3FEE2E748A80DF5097822F063FB48A99A
:1048D000304623F02DFD48A822F03EFB2E4A231D32
:1048E000019000924FF480712C4A08A82BF08EFFA3
:1048F000002308A940468DF81F311EF093FB02A843
:10490000274C22F04DFC0323394604AA28468DF893
:104910000C30CDF8008002AB02941EF06BFE02A8B2
:10492000029422F043FC40461EF064FB48A822F0AB
:1049300019FB04A821F08AFC0DF54B7DBDE8F0833E
:104940000DF5097840461EF0A5F93146404622F0A3
:10495000A7FED0B948A8DFF8489022F021FC032335
:10496000284604AA39468DF82431CDF8008048AB9A
:10497000CDF820911EF02CFC48A8CDF8209122F013
:1049800015FC40461EF06EF98AE7024640F2B64139
:10499000044822F0B3F9DDE7746000204C60002089
:1049A000E4660020245F00202DE9F0430446ADF5C5
:1049B0004B7D0E4604F5976504A821F09FFC284620
:1049C00021F0ACFFB8B904F54A75204621F0A2F9F0
:1049D000471C284621F0A2FF00284FD104F563753B
:1049E000284621F09BFF58B904A821F02FFC0DF5B3
:1049F0004B7DBDE8F08304A9284621F015FEE2E7CF
:104A000048A80DF5097822F0C5FA48A9304623F0E8
:104A10008FFC48A822F0A0FA2E4A231D0190009294
:104A20004FF480712C4A08A82BF0F0FE002308A94F
:104A300040468DF81F311EF0F5FA02A8274C22F0EF
:104A4000AFFB0523394604AA28468DF80C30CDF873
:104A5000008002AB02941EF0CDFD02A8029422F069
:104A6000A5FB40461EF0C6FA48A822F07BFA04A82F
:104A700021F0ECFB0DF54B7DBDE8F0830DF50978D9
:104A800040461EF007F93146404622F009FED0B9F3
:104A900048A8DFF8489022F083FB0523284604AAA3
:104AA00039468DF82431CDF8008048ABCDF82091FF
:104AB0001EF08EFB48A8CDF8209122F077FB4046EF
:104AC0001EF0D0F88AE7024640F21951044822F05D
:104AD00015F9DDE73860002014600020E46600204E
:104AE000245F00202DE9F0430446ADF54B7D0E46D2
:104AF00004F5976504A821F001FC284621F00EFF7B
:104B0000B8B904F54A75204621F004F9871C2846F7
:104B100021F004FF00284FD104F56375284621F0E9
:104B2000FDFE58B904A821F091FB0DF54B7DBDE8C1
:104B3000F08304A9284621F077FDE2E748A80DF5A7
:104B4000097822F027FA48A9304623F0F1FB48A85B
:104B500022F002FA2E4A231D019000924FF4807138
:104B60002C4A08A82BF052FE002308A940468DF8D5
:104B70001F311EF057FA02A8274C22F011FB062322
:104B8000394604AA28468DF80C30CDF8008002ABD7
:104B900002941EF02FFD02A8029422F007FB40466B
:104BA0001EF028FA48A822F0DDF904A821F04EFBF7
:104BB0000DF54B7DBDE8F0830DF5097840461EF0FC
:104BC00069F83146404622F06BFDD0B948A8DFF8BD
:104BD000489022F0E5FA0623284604AA39468DF8C3
:104BE0002431CDF8008048ABCDF820911EF0F0FACA
:104BF00048A8CDF8209122F0D9FA40461EF032F8AC
:104C00008AE7024640F27C51044822F077F8DDE75B
:104C1000CC5F0020B85F0020E4660020245F002005
:104C20002DE9F043D3B004466B4D2CA822F0C0FA16
:104C3000002302AA2CA904F15C002C95029320F019
:104C400007FB002863D12CA822F0CAFF002303A988
:104C50002CA8039322F012FE00285FD19DF80C606F
:104C6000002E52D0002304A92CA8049322F006FEA3
:104C700050B9012E10D002242CA82C9522F0A0FAB5
:104C8000204653B0BDE8F083024640F25B615348D2
:104C900022F034F8012EEED1002305A92CA80593AB
:104CA00022F0DEFD00286BD1002306A92CA8069374
:104CB00022F0D6FD00285CD10BA81DF0ABFA0BA9A1
:104CC0002CA822F009FF00284CD10BA8444E22F05A
:104CD00087FF07A822F064FA002307A90BA807960C
:104CE0008DF8203022F0F2FEF8B104F51874204659
:104CF00021F014FE00284AD107A8079622F056FAA0
:104D00000BA800241DF06EFAB6E70324B4E70246B0
:104D100040F24461314821F0F1FF94E7024640F24D
:104D20004E612E4821F0EAFF98E70BA822F0B2FF6F
:104D30000028DAD1059909A8069A236801911F6A0B
:104D4000009222F02DFA9DF82030204609968DF829
:104D5000283009ABDDE90021B84709A8099622F0FF
:104D600025FAC9E7024640F277611C4821F0C6FFE8
:104D7000ABE7024640F26F61184821F0BFFF9BE7A6
:104D8000024640F26761154821F0B8FF8CE709AF91
:104D9000DFF85080DDE905923846009222F000FAF3
:104DA00003232046C7F800803B7121F0B7FD009A2D
:104DB00050B1204649463B461DF0EEFE3846C7F846
:104DC000008022F0F3F997E740F27E31034821F0AA
:104DD00037FF009AEDE700BF707F0020245F0020BE
:104DE000AC6C0020C8660020034B10B5044603607D
:104DF00000F0DCF8204610BD907E0020054B10B579
:104E00000446036000F0D2F8204624F005F820465E
:104E100010BD00BF907E002010B5044600F070F871
:104E2000034A4FF0FF3320462260C4F82C3110BDF6
:104E3000907E002000F076B810B590F82C01144652
:104E400023F006FF01462046A1F10101B1FA81F1EC
:104E5000BDE81040490923F0FBB900BF117990F873
:104E60002C01A1F10101B1FA81F1490923F0C6BE7B
:104E700070B50D460446164670B1002D04DD2A4675
:104E8000B521084821F03AFF2368324629462046DA
:104E9000DB68BDE8704018479821024821F0D0FE39
:104EA000EBE700BF945B002070B50D460446164644
:104EB00070B1002D04DD2A46C421084821F01EFFF0
:104EC00023683246294620461B69BDE870401847D2
:104ED000A421024821F0B4FEEBE700BF945B002060
:104EE00038B50D1E044604DD2A462321034821F06F
:104EF00005FF682303FB0540C43038BD945B0020E8
:104F000010B5044620F0EEFE054B204640F85C3B11
:104F100000F0D0F904F1C40000F074FA204610BD8E
:104F2000E47E0020F0B50446A3B020F0E9FE00279F
:104F300004F15C0604F1C405304600F0E1F9174ABB
:104F40002146304600F0C2F9231D3946304603930E
:104F500021F01CFC039B7821114A04A800972BF038
:104F600055FC04A9304621F04DFD284600F0F2FA28
:104F700021460C4A284600F051FA3946284621F0CD
:104F800005FC039B084A782104A800972BF03EFCFF
:104F900004A9284621F036FD23B0F0BD012F000002
:104FA0002C5C0020392F0000485C002010B5094B14
:104FB000044640F8C43BD4F8C4305B689847E36DBE
:104FC00004F15C005B689847204620F073FE2046A1
:104FD00010BD00BFE47E002010B5074A0446074B11
:104FE00000F594702260C4F8283122F0DFF82046E2
:104FF00000F0A0F8204610BDD07E0020587E002092
:1050000010B5094A0446094B00F594702260C4F8B3
:10501000283122F0CBF8204600F08CF8204623F00F
:10502000FBFE204610BD00BFD07E0020587E002031
:1050300010B5044600F09EF8064A4FF0FF3304F521
:105040009470C4F8243122601AF04CFB024B2046C5
:105050001C6010BDD07E0020989B002000F09CB802
:10506000C0F82411704700BF10B584B0044601A8F1
:105070001AF038FB01A81AF04BFB62B6002101AA16
:10508000204600F0B5F801A904F594701AF038FB39
:10509000034B01A8019322F089F804B010BD00BFB2
:1050A000587E002010B5044623F0C0FC204610BDF9
:1050B000014B1868FFF7D8BF989B002030B5D0F897
:1050C00024514FF47A74002389B005FB04F40F488F
:1050D0001A4600932146013CCDE90533CDE903335F
:1050E000CDE9013321F098FC094B9C4201D309B072
:1050F00030BD45F6C0530749074803FB05F2013AA6
:1051000009B0BDE8304023F02DBC00BF545B002047
:10511000AAAAAA0A41310000B4880020024A034921
:10512000034829F0EBBA00BFC488002035310000E5
:10513000B488002010B5094B044640F8C03BD4F8B1
:10514000C0305B689847E36D04F15C005B6898478A
:10515000204620F0AFFD204610BD00BF247F002078
:1051600010B50446FFF7E6FF204623F055FE204623
:1051700010BD00BF10B5044620F0B4FD054B20461D
:1051800040F85C3B1AF096FB04F1C00000F088F98F
:10519000204610BD247F002070B50446A2B020F048
:1051A000AFFD002504F15C0630461AF0DFFB231D3D
:1051B0000D4AC034782104A8009503932BF026FBF8
:1051C00004A9304621F01EFC204600F0C5F9039BDF
:1051D000064A782104A800952BF018FB04A9204664
:1051E00021F010FC22B070BD4C5E0020685E0020F3
:1051F00070B50D1E0446164604DD2A469921064860
:1052000021F07CFD6423314603FB0540BDE870407E
:105210005C301AF06BBB00BFA45D002070B5044683
:1052200082B00D4621F080FBE36DDBB1636E03B30A
:105230006846124E21F0B4FF0023284669460096C6
:105240008DF8043022F042FC054620B9636E6A46B0
:10525000D4E9170198476846009621F0A7FF284631
:1052600002B070BD6321064821F0EAFC636E002B9A
:10527000DED16421024821F0E3FCD9E7006D002073
:10528000E4170020034B10B50446036021F074FAC4
:10529000204610BD58700020054B10B50446036031
:1052A00021F06AFA204623F0B7FD204610BD00BF6A
:1052B0005870002010B5044621F04EFA024A00232F
:1052C00020462260636610BD5870002070B5044609
:1052D0000D46164621B14EB1E5656666656570BD41
:1052E0004321064821F0ACFC002EF5D144210348AF
:1052F00021F0A6FCE5656666656570BDE4170020D3
:1053000021F054BA042070470C30704770B5044641
:1053100082B00D4621F008FBE36DDBB1636E03B391
:105320006846124E21F03CFF00232846694600964D
:105330008DF8043022F0CAFB054620B9636E6A4638
:10534000D4E9170198476846009621F02FFF2846B8
:1053500002B070BD6321064821F072FC636E002B21
:10536000DED16421024821F06BFCD9E7006D0020FA
:1053700078180020034B10B50446036021F020FF8D
:10538000204610BDA86F0020054B10B504460360F1
:1053900021F016FF204623F03FFD204610BD00BF40
:1053A000A86F0020034B10B50446036021F000FAFB
:1053B000204610BDAC700020054B10B504460360BC
:1053C00021F0F6F9204623F027FD204610BD00BF4E
:1053D000AC700020034B10B50446036021F0CCF9FB
:1053E000204610BD74700020054B10B504460360C4
:1053F00021F0C2F9204623F00FFD204610BD00BF6A
:105400007470002010B5044621F0A6F9024A00236A
:1054100020462260636610BD7470002070B504469B
:105420000D46164621B14EB1E5656666656570BDEF
:105430004321064821F004FC002EF5D14421034805
:1054400021F0FEFBE5656666656570BD7818002095
:1054500010B5044682B0019121F066FAE36D019A1D
:105460003BB1636E6BB1D4E9170102B0BDE81040E7
:1054700018475221094821F0E3FB636E019A002B83
:10548000F1D153210548019221F0DAFB636E019AB4
:10549000D4E9170102B0BDE8104018477818002081
:1054A00010B5044621F0D4F9024A002320462260B8
:1054B000236610BDAC70002038B504460D4621B1FE
:1054C000002325666565E36538BD8821014821F024
:1054D000B7FBF5E77818002070B5044684B00D4698
:1054E00021F022FA206E28B1294604B0BDE87040B0
:1054F000FFF7AEBFE36D0BB3144E684621F058FEC4
:1055000029466846009622F0CBF858B9E06D694606
:1055100003681B69984758B96846009621F050FE09
:1055200004B070BD0246A421094821F0E7FBEDE775
:105530000246A721064821F0E1FBEDE79A21044845
:1055400021F07EFB206E0028D6D0CDE7A86F00208A
:105550007818002021F02AB921F086B9704700BFE1
:10556000034B10B50446036000F0B6F9204610BDA9
:1055700018700020054B10B50446036000F0ACF92C
:10558000204623F049FC204610BD00BF18700020C3
:10559000002100F0DDB900BF002100F009BA00BF12
:1055A00010B5044600F09EF8034A0023204622600E
:1055B000C4F8583410BD00BF1870002000F0BCB80B
:1055C000036800215B6B184710B58AB0044603A836
:1055D0001AF088F803A81AF09BF803AA20460021C5
:1055E00000F0CEF9D4F8581406A8019120F086FEF8
:1055F00006AA0199204600F085FB06A820F026FEA9
:10560000D4F85834044A03A801330392C4F8583438
:1056100021F0CCFD0AB010BD587E00204FF48570FB
:10562000704700BF0C307047704700BF704700BF25
:10563000034B10B50446036021F0C2FD204610BDA7
:10564000FC6F0020054B10B50446036021F0B8FD47
:10565000204623F0E1FB204610BD00BFFC6F002078
:1056600070B50D1E0446164604DD2A468221064802
:1056700021F044FB6423314603FB0540BDE8704044
:1056800000F532701AF022B9801B002070B50D1E93
:105690000446164604DD2A469621064821F02EFBD4
:1056A0006423314603FB0540BDE8704000F564709B
:1056B00020F0AABF801B002070B50D1E04461646C0
:1056C00004DD2A46A021064821F018FB6423314658
:1056D00003FB0540BDE8704000F57D701FF04EBB38
:1056E000801B002010B504461FF0ECFC114B04F5A4
:1056F0009670236000F07CFC04F5CA7020F07EFBFD
:1057000004F5FE701EF09EFF04F5197000F0BEFC5B
:1057100004F532701AF0CEF804F54B7020F0BCFBA3
:1057200004F5647020F064FF04F57D701FF01AFB2F
:10573000204610BD147100202DE9F0470446A0B0AA
:105740008946114604F5967700251FF0C9FC261DF1
:10575000384604F5CA7800F0E3FC534A384621463F
:1057600000F052FC3846294604F5197A21F00EF86B
:1057700033464E4A782102A800952BF047F802A93B
:10578000384604F5FE7721F03DF9404620F0CEFB87
:10579000474A4046214620F03DFB4046294620F03E
:1057A000F5FF3346434A782102A800952BF02EF8E6
:1057B00002A9404604F5327821F024F938461EF05B
:1057C000E9FF3D4A384621461EF048FF3846294643
:1057D00020F0DCFF3346394A782102A800952BF0EF
:1057E00015F802A9384604F54B7721F00BF950461D
:1057F00000F0C4FC3346324A782102A800952BF011
:1058000005F802A9504621F0FDF840461AF0AEF81E
:1058100033462C4A782102A800952AF0F7FF02A906
:10582000404604F5647821F0EDF8384620F080FB1E
:105830003346254A782102A800952AF0E7FF02A9FD
:10584000384604F57D7721F0DDF8404620F058FF1A
:1058500033461E4A782102A800952AF0D7FF02A9F4
:10586000404621F0CFF838461FF03EFB184A334639
:10587000782102A800952AF0C9FF02A9384621F034
:10588000C1F84FF48572494620461FF071FB10B9EC
:1058900020B0BDE8F08702464FF4DD710D4820B01E
:1058A000BDE8F04721F02ABA453B0000181C002053
:1058B000513C0000341C00205D3D0000501C0020C5
:1058C000681C00204C5E0020881C0020A41C0020C6
:1058D000BC1C0020801B002010B51C4A0446D0F8D8
:1058E000F43300F57D7022605B689847D4F89033FC
:1058F00004F564705B689847D4F82C3304F54B705A
:105900005B689847D4F8C83204F532705B689847F2
:10591000D4F8643204F519705B689847D4F8FC3108
:1059200004F5FE705B689847D4F8943104F5CA70AA
:105930005B689847D4F82C3104F596705B689847FB
:1059400020461FF0F7FB204610BD00BF1471002059
:1059500070B50D1E0446164605DD2A464FF4E87163
:10596000064821F0CBF96423314603FB0540BDE82E
:10597000704000F5197000F095BB00BF801B00203F
:1059800070B50D1E0446164605DD2A464FF4ED712E
:10599000064821F0B3F96423314603FB0540BDE816
:1059A000704000F5327019F0A1BF00BF801B0020CD
:1059B00070B50D1E0446164605DD2A464FF4F271F9
:1059C000064821F09BF96423314603FB0540BDE8FE
:1059D000704000F54B7020F06BBA00BF801B0020B8
:1059E000F0B50C1EC7B00546174605DD224640F24D
:1059F000DF212D4821F082F92B682C4A9B6A9342C3
:105A00004CD168462A4E21F0D3FB0121684600960E
:105A100021F0BEFCB8B92146684621F0B9FCF0B9C6
:105A20003946684621F042FE28BB0123002205F1D9
:105A30005C0069461FF0F4FB20BB6846009621F02D
:105A4000BFFB47B0F0BD024640F2ED21164821F001
:105A500055F92146684621F09BFC0028E0D002461B
:105A600040F2F321104821F049F93946684621F007
:105A70001DFE0028D9D0024640F2FA210A4821F042
:105A80003DF9D2E7024640F20531074821F036F9E8
:105A90006846009621F094FB47B0F0BD3A46214697
:105AA00028469847ADE700BF801B0020B9360000AC
:105AB000FC6F002030B50D4683B0044630B1294656
:105AC000204603B0BDE83040FFF78ABF40F2B62160
:105AD0000548019221F0B4F8019A2946204603B006
:105AE000BDE83040FFF77CBF801B0020F0B50C1EE6
:105AF000C7B00546174605DD22464FF445712D48CF
:105B000021F0FCF82B682C4ADB6A93424CD16846A2
:105B10002A4E21F04DFB02216846009621F038FC08
:105B2000B8B92146684621F033FCF0B939466846D9
:105B300021F0CCFB28BB0123002205F15C00694663
:105B40001FF06EFB20BB6846009621F039FB47B082
:105B5000F0BD024640F22231164821F0CFF821462E
:105B6000684621F015FC0028E0D002464FF44A7147
:105B7000104821F0C3F83946684621F0A7FB0028F9
:105B8000D9D0024640F22F310A4821F0B7F8D2E7C7
:105B9000024640F23A31074821F0B0F868460096D4
:105BA00021F00EFB47B0F0BD3A4621462846984703
:105BB000ADE700BF801B0020BD360000FC6F002059
:105BC00030B50D4683B0044630B12946204603B0B7
:105BD000BDE83040FFF78ABF40F2C221054801927C
:105BE00021F02EF8019A2946204603B0BDE8304046
:105BF000FFF77CBF801B0020F0B50C1EC7B0054628
:105C0000174605DD224640F249312D4821F076F84D
:105C10002B682C4A1B6B93424CD168462A4E21F0CC
:105C2000C7FA03216846009621F0B2FBB8B92146B5
:105C3000684621F0ADFBF0B93946684621F046FBD5
:105C400028BB0123002205F15C0069461FF0E8FA39
:105C500020BB6846009621F0B3FA47B0F0BD02467B
:105C600040F25731164821F049F82146684621F0A4
:105C70008FFB0028E0D0024640F25D31104821F051
:105C80003DF83946684621F021FB0028D9D002466C
:105C90004FF459710A4821F031F8D2E7024640F238
:105CA0006F31074821F02AF86846009621F088FAFB
:105CB00047B0F0BD3A46214628469847ADE700BFB9
:105CC000801B0020BD360000FC6F002030B50D4663
:105CD00083B0044630B12946204603B0BDE83040C9
:105CE000FFF78ABF40F2CE210548019220F0A8FFBD
:105CF000019A2946204603B0BDE83040FFF77CBF3B
:105D0000801B00202DE9F04100F57D77A2B004460C
:105D10000E463846154620F001FE10B922B0BDE807
:105D2000F08104F56478404620F0F8FDB0B901A890
:105D30001EF050FD314601A821F0C8FAC8B920462E
:105D40001FF0E8FF01AB01462A4638461FF026F84F
:105D500001A81EF027FD22B0BDE8F08108492846C1
:105D600020F012FB0028E2D04046294620F05CFCDF
:105D7000DDE7024640F25F21024820F0BFFFDEE788
:105D8000789B0020801B002070B5ADF50C7D04468B
:105D90005A4E46A821F00CFA00236A4646A904F19F
:105DA0005C00469600931FF053FA002832D146A8B3
:105DB00021F016FF002301A946A8019321F05EFD02
:105DC00008BB9DF80450ADB1002302A946A8029378
:105DD00021F054FD38B9013D032D00F28C80DFE83D
:105DE00005F03348562002464FF46E71444820F0C7
:105DF00085FFF0E7032446A8469621F0E1F9204606
:105E00000DF50C7D70BD024640F2AB313C4820F0F0
:105E100075FFD6E7024640F2A131394820F06EFF07
:105E2000C5E703AD46A8294621F01AFD00283CD15C
:105E300046A821F02FFF002853D123682046296867
:105E400000245B6B9847D6E703AD284600F078F84E
:105E5000294646A821F040FE00283BD12368204671
:105E600002992A46DB6900249847284600F050F83A
:105E7000C1E703AD46A8294621F0F2FC18BB236810
:105E800020462A68002402991B6A9847B3E703ADAD
:105E900046A8294621F0E4FC70B9236820462A6808
:105EA000002402995B6A9847A5E7024640F2054143
:105EB000134820F023FFBBE7024640F2EF311048C1
:105EC00020F01CFFE9E7024640F2DA310C4820F0EE
:105ED00015FFD4E7024640F2C531094820F00EFF15
:105EE000BCE746A821F0D6FE40F20C410246044829
:105EF00020F004FFA1E702247DE700BFFC6F002033
:105F0000801B00204FF48070704700BF0C3070473A
:105F1000034B10B50446036021F052F9204610BD32
:105F2000386F0020054B10B50446036021F048F996
:105F3000204622F071FF204610BD00BF386F0020C0
:105F400010B5044621F034F9014B2046236010BD02
:105F5000386F00204FF48170704700BF0C307047DD
:105F6000034B10B50446036021F02AF9204610BD0A
:105F7000C46F0020054B10B50446036021F020F9E2
:105F8000204622F049FF204610BD00BFC46F00200C
:105F9000034B10B50446036020F00AFC204610BDF8
:105FA000C4700020054B10B50446036020F000FCCF
:105FB000204622F031FF204610BD00BFC4700020F3
:105FC000034B10B50446036020F0D6FB204610BDFD
:105FD00090700020054B10B50446036020F0CCFB08
:105FE000204622F019FF204610BD00BF907000200F
:105FF00010B5044620F0B0FB024A00232046226080
:10600000636610BD9070002070B504460D461646BC
:1060100021B14EB1E5656666656570BD43210648F0
:1060200020F00EFE002EF5D14421034820F008FE9A
:10603000E5656666656570BD1019002010B50446FB
:1060400082B0019120F070FCE36D019A3BB1636E68
:106050006BB1D4E9170102B0BDE8104018475221D6
:10606000094820F0EDFD636E019A002BF1D1532118
:106070000548019220F0E4FD636E019AD4E917010E
:1060800002B0BDE8104018471019002010B50446B2
:1060900020F0DEFB024A002320462260236610BD6A
:1060A000C470002070B50446C4B00D4620F03CFC1E
:1060B000206E28B1294644B0BDE87040FFF7BEBF4E
:1060C000E36D0BB3144E684621F072F8294668461A
:1060D000009621F0EBFA58B9E06D694603681B6938
:1060E000984758B96846009621F06AF844B070BDE8
:1060F0000246A421094820F001FEEDE70246A7214F
:10610000064820F0FBFDEDE79A21044820F098FDB9
:10611000206E0028D6D0CDE7C46F002010190020D3
:1061200020F044BB30B50446C5B00D4620F0FCFB62
:10613000E36DABB1636ED3B101A8FFF701FF284651
:1061400001A921F0C9FC054620B9636E01AAD4E972
:106150001701984701A8FFF7DBFE284645B030BD80
:106160006321054820F06CFD636E002BE4D16421AF
:10617000014820F065FDDFE71019002020F074BB16
:106180002DE9F04782B007469A461546DDF828808B
:10619000DDF82C905AB398F80460731E062B52D881
:1061A000DFE803F0082F0434393E2A0097F89035D1
:1061B000012B19D0013E07F2DC6107F5E86C18BF2E
:1061C000012651F8044FAC4200D16EB98C45F8D18C
:1061D0004346524629463846CDF8009001F068F80B
:1061E00098F80430012B20D002B0BDE8F0873521AB
:1061F000194820F025FDCEE797F8B035012BD9D10D
:10620000F2E797F88835012BD4D1EDE797F8983568
:10621000012BCFD1E8E797F8A035012BCAD1E3E7EE
:1062200097F8A835012BC5D1DEE70021384600F0EC
:10623000E9FD0028D8D02A460021384602B0BDE842
:10624000F04700F095BD32465921034802B0BDE841
:10625000F04720F053BD00BF7C22002070B50446FB
:10626000187984B00D4604EBC0000D4E089900F279
:106270008450019200F008FA02A820F091FF002358
:106280002046019A29468DF80C3002AB029600F0A8
:10629000E5FD02A8029620F089FF04B070BD00BFA2
:1062A000C86600202DE9F04383B006460F469046AD
:1062B0000A9C25791C4625BB00F2DC6100F5E862EA
:1062C0008C4601E0944548D05CF8043FA342F9D1E4
:1062D0006846414D20F064FF0023304642468DF869
:1062E000043039466B46009500F0B8FD68460095CD
:1062F00020F05CFF2146304603B0BDE8F04301F0DA
:10630000F3B800F2DC634FF0000C04E00CF1010C78
:10631000BCF1190F41D053F8045FA542F6D10CF53A
:10632000DC7C4FF000092C4D684646F82C9020F09C
:1063300037FF394642466B4630468DF8049000954B
:1063400000F08CFD6846009520F030FF2146304675
:1063500003B0BDE8F04301F0E7B9002302E00133E8
:10636000192B33D051F8045F002DF8D103F5DC73FD
:10637000DFF86490684646F8234020F011FF30466D
:10638000424639466B468DF80450CDF8009000F037
:1063900065FD6846CDF80090AAE72146304601F039
:1063A00053FA68460C4C20F0FBFE0423304642466C
:1063B00039468DF804306B46009400F04FFD684676
:1063C000009420F0F3FE03B0BDE8F0832146304690
:1063D00001F01AF9E5E700BFC86600202DE9F04397
:1063E000002485B006460F469046254D00F5B1695C
:1063F000684620F0D5FE02A88DF80440009520F0F4
:10640000CFFE19F8342002A99DF804303046B2FAC4
:1064100082F201348DF80C305209029501F0A4FA91
:1064200002A8029520F0C2FE6846009520F0BEFE4C
:10643000062CDDD106F2DC6406F5E86501E0AC422D
:1064400008D054F8041F0029F9D0304601F04CF868
:10645000AC42F6D102A80B4C20F0A2FE002330463D
:10646000424639468DF80C3002AB029400F0F6FC3F
:1064700002A8029420F09AFE05B0BDE8F08300BFA8
:106480000C7C0020C8660020002100F0A3BC00BFE7
:106490002DE9F8430546DFF8888000F0DFFA002692
:1064A00005F284591D4B05F2B4574C462B6020462B
:1064B000083420F075FEBC4244F8088C04F8046CE3
:1064C000F5D120461CF00AFC05F254601FF078FD5F
:1064D0000021484600F0DCF8002105F28C5000F065
:1064E000D7F8002105F2945000F0D2F8002105F20F
:1064F0009C5000F0CDF8002105F2A45000F0C8F83F
:10650000012105F2AC5000F0C3F86422002105F52A
:10651000DC6028F045F82846BDE8F883B475002013
:10652000A476002000F0D0BAF8B505460C4B00F276
:10653000B45400F254602B6005F284561FF028FD1D
:106540002046084F1CF0EAFB44F8087D204620F066
:106550002DFEB442F8D1284600F0BCFB2846F8BD19
:10656000B4750020A4760020F8B505460E4B00F265
:10657000B45400F254602B6005F284561FF008FDFD
:1065800020460A4F1CF0CAFB44F8087D204620F044
:106590000DFEB442F8D1284600F09CFB284622F0BC
:1065A0003BFC2846F8BD00BFB4750020A47600204F
:1065B0002DE9F04100F2B455164600F25467DDF8BB
:1065C0001880044628461CF09FFB314628461CF0E4
:1065D000A1FB414628461CF099FB384621F0FCFA05
:1065E000394628461CF0C2FB30B90021204600F095
:1065F0001FFC60B9BDE8F08102467A21084820F00E
:106600007DFB0021204600F013FC0028F2D000237F
:106610003A4620461946BDE8F04100F0C1BB00BF34
:106620007C2200200B460179184620F0B1BE00BF45
:1066300010B50A4682B0044601A9104621F01EF9A1
:1066400038B99DF80420012A227194BF0023012348
:10665000980002B010BD00BF034B10B504460360A4
:1066600020F0A4FD204610BDA4760020054B10B5F7
:106670000446036020F09AFD204622F0CDFB204620
:1066800010BD00BFA47600200B790371704700BFD6
:106690000171704730B5C3B004460D4601A820F023
:1066A00079FC23799BB1012B16D00E4901A820F06B
:1066B0007DFC01A820F050FC237902460A492846B7
:1066C00021F0F6FB01A820F04DFC43B030BD074996
:1066D00001A820F06BFCECE7054901A820F066FC5E
:1066E000E7E700BF1865002024650020046500204E
:1066F0000C6500200B460179184620F049BE00BF0A
:1067000010B50A4682B0044601A9104621F0B6F839
:1067100038B99DF80420052A227194BF0023012373
:10672000980002B010BD00BF034B10B504460360D3
:1067300020F03CFD204610BD0C7C0020054B10B520
:106740000446036020F032FD204622F065FB20461F
:1067500010BD00BF0C7C002030B5C3B004460D4610
:1067600001A820F017FC2379052B2FD8DFE803F0D0
:10677000151A1F242903184901A820F017FC01A8A5
:1067800020F0EAFB237902461449284621F090FBC9
:1067900001A820F0E7FB43B030BD114901A820F06B
:1067A00005FCECE70F4901A820F000FCE7E70E49E3
:1067B00001A820F0FBFBE2E70C4901A820F0F6FB62
:1067C000DDE70B4901A820F0F1FBD8E7094901A852
:1067D00020F0ECFBD3E700BF2066002024650020FA
:1067E000E8650020F46500200066002008660020AF
:1067F0001466002018650020952070470C30704703
:10680000704700BF704700BF034B10B504460360DC
:1068100020F0D6FC204610BD54730020054B10B567
:106820000446036020F0CCFC204622F0F5FA204616
:1068300010BD00BF547300202DE9F04182B00D4619
:1068400016460446089FDDF82480A8B1002D07DD18
:106850002A4640F297610C48019320F04FFA019BC1
:10686000294620463246CDE908782568EC69A446D9
:1068700002B0BDE8F041604740F27A6102480193FE
:1068800020F0DEF9019BE1E77C34002038B50D1ED5
:10689000044604DD2A465E21044820F02FFA6823CE
:1068A00003FB054000F5967038BD00BF7C34002026
:1068B00038B50D1E044604DD2A466521044820F043
:1068C0001DFA682303FB054000F5CA7038BD00BF00
:1068D0007C34002070B50D1E0446164604DD2A46A1
:1068E0007A21064820F00AFA6423314603FB05406A
:1068F000BDE8704000F519701BF07EBF7C340020AD
:1069000070B50D1E0446164604DD2A46842106484D
:1069100020F0F4F96423314603FB0540BDE87040E4
:1069200000F532701CF028B97C34002070B50D1EC3
:106930000446164604DD2A468E21064820F0DEF97C
:106940006423314603FB0540BDE8704000F54B7001
:106950000EF006B87C34002070B50D1E04461646B5
:1069600004DD2A469821064820F0C8F96423314600
:1069700003FB0540BDE8704000F564701CF018BCD6
:106980007C34002070B50D1E0446164604DD2A46F0
:10699000A321064820F0B2F96423314603FB0540E9
:1069A000BDE8704000F57D701CF014BE7C34002002
:1069B00070B50D1E0446164604DD2A46AE21064873
:1069C00020F09CF96423314603FB0540BDE870408C
:1069D00000F58B601FF0A2BB7C34002070B50D1E4B
:1069E0000446164604DD2A46B821064820F086F9FA
:1069F0006423314603FB0540BDE8704000F2BC4013
:106A00001FF002BE7C34002038B500F5197504462D
:106A100028461FF083FFC0B120461FF07BF90146D6
:106A200028461BF0F9FE20461FF074F9014628465F
:106A300002311BF0F1FE20461FF06CF9014628469A
:106A40000331BDE838401BF0E7BE40F22711024891
:106A500020F0F6F8E0E700BF7C34002010B50446D3
:106A60001EF030FB174B04F5967023601BF0EEFC14
:106A700004F5CA701CF042FB04F5FE701FF0BEF96D
:106A800004F519701BF0ACFE04F532701CF068F8C8
:106A900004F54B700DF058FF04F564701CF07CFB9E
:106AA00004F57D701CF08AFD04F58B601FF02AFB55
:106AB00004F2BC401FF09CFD04F5A4601FF0ECF94B
:106AC000204610BD087900202DE9F0430446A1B00E
:106AD0008946114604F5967700251EF001FB261D18
:106AE000384604F5CA781BF077FD6B4A38462146D4
:106AF0001BF0B8FC384629461FF048FE3346674A6B
:106B0000782102A8009529F081FE02A9384604F5F3
:106B1000FE771FF077FF40461CF0C8FB604A4046F6
:106B200021461CF0F7FA404629461FF02FFE334657
:106B30005C4A782102A8009529F068FE02A9404627
:106B400004F519781FF05EFF38461FF0EFF9564A3A
:106B5000384621461FF05EF9384629461FF016FEDA
:106B60003346524A782102A8009529F04FFE02A927
:106B7000384604F532771FF045FF40461BF08CFE87
:106B800033464B4A782102A8009529F03FFE02A91E
:106B9000404604F54B781FF035FF38461CF05CF892
:106BA0003346444A782102A8009529F02FFE02A915
:106BB000384604F564771FF025FF40460DF020FFAE
:106BC00033463D4A782102A8009529F01FFE02A90C
:106BD000404604F57D781FF015FF38461CF0C6FBD3
:106BE0003346364A782102A8009529F00FFE02A903
:106BF000384604F58B671FF005FF40461CF0C8FDC2
:106C000033462F4A782102A8009529F0FFFD02A9FA
:106C1000404604F2BC481FF0F5FE38461FF014FB56
:106C20003346284A782102A8009529F0EFFD02A9F1
:106C3000384604F5A4671FF0E5FE40461FF060FDEE
:106C40003346214A782102A8009529F0DFFD02A9E8
